{
  "address": "0x292D8BACc94B8EF9d640C7449891349d7A14c3A6",
  "abi": [
    {
      "inputs": [],
      "name": "AccountNotInAllowlist",
      "type": "error"
    },
    {
      "inputs": [],
      "name": "ArraysLengthDontMatch",
      "type": "error"
    },
    {
      "inputs": [
        {
          "internalType": "uint256",
          "name": "_invalidDiscountIndex",
          "type": "uint256"
        }
      ],
      "name": "DiscountCodeAlreadyUsed",
      "type": "error"
    },
    {
      "inputs": [
        {
          "internalType": "uint96",
          "name": "_invalidStartTime",
          "type": "uint96"
        },
        {
          "internalType": "uint256",
          "name": "_invalidEndTime",
          "type": "uint256"
        }
      ],
      "name": "EndTimeBehindStartTime",
      "type": "error"
    },
    {
      "inputs": [],
      "name": "ExceedsSaleSupply",
      "type": "error"
    },
    {
      "inputs": [],
      "name": "ExceedsTokensPerTransactionLimit",
      "type": "error"
    },
    {
      "inputs": [],
      "name": "ExceedsTokensPerWalletLimit",
      "type": "error"
    },
    {
      "inputs": [
        {
          "internalType": "uint256",
          "name": "_invalidSaleCategoryId",
          "type": "uint256"
        }
      ],
      "name": "InexistentSaleCategory",
      "type": "error"
    },
    {
      "inputs": [],
      "name": "InvalidDiscountCode",
      "type": "error"
    },
    {
      "inputs": [
        {
          "internalType": "uint64",
          "name": "_invalidPerTransactionLimit",
          "type": "uint64"
        },
        {
          "internalType": "uint64",
          "name": "_invalidPerWalletLimit",
          "type": "uint64"
        }
      ],
      "name": "PerTransactionLimitGreaterThanPerWalletLimit",
      "type": "error"
    },
    {
      "inputs": [
        {
          "internalType": "enum IController.PHASE_ID",
          "name": "_inactivePhase",
          "type": "uint8"
        }
      ],
      "name": "PhaseInactive",
      "type": "error"
    },
    {
      "inputs": [
        {
          "internalType": "enum IController.PHASE_ID",
          "name": "_currentPhaseId",
          "type": "uint8"
        }
      ],
      "name": "PhaseIsAlreadyActive",
      "type": "error"
    },
    {
      "inputs": [],
      "name": "SaleNotActive",
      "type": "error"
    },
    {
      "inputs": [],
      "name": "SaleNotAllowlisted",
      "type": "error"
    },
    {
      "inputs": [],
      "name": "SaleNotDiscounted",
      "type": "error"
    },
    {
      "inputs": [],
      "name": "SalePaused",
      "type": "error"
    },
    {
      "inputs": [],
      "name": "SetTokensToReserveForAllPhases",
      "type": "error"
    },
    {
      "inputs": [
        {
          "internalType": "uint96",
          "name": "_invalidStartTime",
          "type": "uint96"
        }
      ],
      "name": "StartTimeInPast",
      "type": "error"
    },
    {
      "inputs": [
        {
          "internalType": "enum IController.PHASE_ID",
          "name": "_phaseId",
          "type": "uint8"
        }
      ],
      "name": "TokensAlreadyReservedForPhase",
      "type": "error"
    },
    {
      "inputs": [],
      "name": "TransferExactAmount",
      "type": "error"
    },
    {
      "anonymous": false,
      "inputs": [
        {
          "indexed": false,
          "internalType": "uint256",
          "name": "_saleCategoryId",
          "type": "uint256"
        },
        {
          "indexed": false,
          "internalType": "uint8",
          "name": "_phase",
          "type": "uint8"
        }
      ],
      "name": "AddedSaleCategory",
      "type": "event"
    },
    {
      "anonymous": false,
      "inputs": [
        {
          "indexed": false,
          "internalType": "address",
          "name": "_oldAvatar",
          "type": "address"
        },
        {
          "indexed": false,
          "internalType": "address",
          "name": "_newAvatar",
          "type": "address"
        }
      ],
      "name": "AvatarUpdated",
      "type": "event"
    },
    {
      "anonymous": false,
      "inputs": [
        {
          "indexed": false,
          "internalType": "uint256",
          "name": "_discountCodeIndex",
          "type": "uint256"
        }
      ],
      "name": "DiscountCodeApplied",
      "type": "event"
    },
    {
      "anonymous": false,
      "inputs": [
        {
          "indexed": false,
          "internalType": "uint256",
          "name": "_saleCategoryId",
          "type": "uint256"
        }
      ],
      "name": "DiscountDisabledOnSaleCategory",
      "type": "event"
    },
    {
      "anonymous": false,
      "inputs": [
        {
          "indexed": false,
          "internalType": "uint256",
          "name": "_saleCategoryId",
          "type": "uint256"
        }
      ],
      "name": "DiscountEnabledOnSaleCategory",
      "type": "event"
    },
    {
      "anonymous": false,
      "inputs": [
        {
          "indexed": false,
          "internalType": "address",
          "name": "_newDiscountSigner",
          "type": "address"
        }
      ],
      "name": "DiscountSignerUpdated",
      "type": "event"
    },
    {
      "anonymous": false,
      "inputs": [
        {
          "indexed": true,
          "internalType": "contract IERC20Upgradeable",
          "name": "token",
          "type": "address"
        },
        {
          "indexed": false,
          "internalType": "address",
          "name": "to",
          "type": "address"
        },
        {
          "indexed": false,
          "internalType": "uint256",
          "name": "amount",
          "type": "uint256"
        }
      ],
      "name": "ERC20PaymentReleased",
      "type": "event"
    },
    {
      "anonymous": false,
      "inputs": [
        {
          "indexed": false,
          "internalType": "uint8",
          "name": "version",
          "type": "uint8"
        }
      ],
      "name": "Initialized",
      "type": "event"
    },
    {
      "anonymous": false,
      "inputs": [
        {
          "indexed": false,
          "internalType": "uint256",
          "name": "_saleCategoryId",
          "type": "uint256"
        },
        {
          "indexed": false,
          "internalType": "uint64",
          "name": "_newKeyCardRatio",
          "type": "uint64"
        }
      ],
      "name": "KeyCardRatioUpdatedForSaleCategory",
      "type": "event"
    },
    {
      "anonymous": false,
      "inputs": [
        {
          "indexed": false,
          "internalType": "address",
          "name": "_oldKeyCard",
          "type": "address"
        },
        {
          "indexed": false,
          "internalType": "address",
          "name": "_newKeyCard",
          "type": "address"
        }
      ],
      "name": "MemberKeyCardUpdated",
      "type": "event"
    },
    {
      "anonymous": false,
      "inputs": [
        {
          "indexed": false,
          "internalType": "uint256",
          "name": "_saleCategoryId",
          "type": "uint256"
        },
        {
          "indexed": false,
          "internalType": "bytes32",
          "name": "_newMerkleRoot",
          "type": "bytes32"
        }
      ],
      "name": "MerkleRootUpdatedSaleCategory",
      "type": "event"
    },
    {
      "anonymous": false,
      "inputs": [
        {
          "indexed": true,
          "internalType": "address",
          "name": "previousOwner",
          "type": "address"
        },
        {
          "indexed": true,
          "internalType": "address",
          "name": "newOwner",
          "type": "address"
        }
      ],
      "name": "OwnershipTransferStarted",
      "type": "event"
    },
    {
      "anonymous": false,
      "inputs": [
        {
          "indexed": true,
          "internalType": "address",
          "name": "previousOwner",
          "type": "address"
        },
        {
          "indexed": true,
          "internalType": "address",
          "name": "newOwner",
          "type": "address"
        }
      ],
      "name": "OwnershipTransferred",
      "type": "event"
    },
    {
      "anonymous": false,
      "inputs": [
        {
          "indexed": false,
          "internalType": "address",
          "name": "account",
          "type": "address"
        }
      ],
      "name": "Paused",
      "type": "event"
    },
    {
      "anonymous": false,
      "inputs": [
        {
          "indexed": false,
          "internalType": "uint256",
          "name": "_saleCategoryId",
          "type": "uint256"
        }
      ],
      "name": "PausedSale",
      "type": "event"
    },
    {
      "anonymous": false,
      "inputs": [
        {
          "indexed": false,
          "internalType": "address",
          "name": "account",
          "type": "address"
        },
        {
          "indexed": false,
          "internalType": "uint256",
          "name": "shares",
          "type": "uint256"
        }
      ],
      "name": "PayeeAdded",
      "type": "event"
    },
    {
      "anonymous": false,
      "inputs": [
        {
          "indexed": false,
          "internalType": "address",
          "name": "from",
          "type": "address"
        },
        {
          "indexed": false,
          "internalType": "uint256",
          "name": "amount",
          "type": "uint256"
        }
      ],
      "name": "PaymentReceived",
      "type": "event"
    },
    {
      "anonymous": false,
      "inputs": [
        {
          "indexed": false,
          "internalType": "address",
          "name": "to",
          "type": "address"
        },
        {
          "indexed": false,
          "internalType": "uint256",
          "name": "amount",
          "type": "uint256"
        }
      ],
      "name": "PaymentReleased",
      "type": "event"
    },
    {
      "anonymous": false,
      "inputs": [
        {
          "indexed": false,
          "internalType": "uint256",
          "name": "_saleCategoryId",
          "type": "uint256"
        },
        {
          "indexed": false,
          "internalType": "uint64",
          "name": "_newPerTransactionLimit",
          "type": "uint64"
        },
        {
          "indexed": false,
          "internalType": "uint64",
          "name": "_newPerWalletLimit",
          "type": "uint64"
        }
      ],
      "name": "PerLimitUpdatedOfSaleCategory",
      "type": "event"
    },
    {
      "anonymous": false,
      "inputs": [
        {
          "indexed": false,
          "internalType": "enum IController.PHASE_ID",
          "name": "newPhaseId",
          "type": "uint8"
        }
      ],
      "name": "PhaseChanged",
      "type": "event"
    },
    {
      "anonymous": false,
      "inputs": [
        {
          "indexed": false,
          "internalType": "uint256",
          "name": "_saleCategoryId",
          "type": "uint256"
        },
        {
          "indexed": false,
          "internalType": "uint256",
          "name": "_newPrice",
          "type": "uint256"
        }
      ],
      "name": "PriceUpdatedForSaleCategory",
      "type": "event"
    },
    {
      "anonymous": false,
      "inputs": [
        {
          "indexed": false,
          "internalType": "uint256",
          "name": "_saleCategoryId",
          "type": "uint256"
        },
        {
          "indexed": false,
          "internalType": "uint64",
          "name": "_newSupplyForTheSale",
          "type": "uint64"
        }
      ],
      "name": "SupplyUpdatedForSaleCategory",
      "type": "event"
    },
    {
      "anonymous": false,
      "inputs": [
        {
          "indexed": false,
          "internalType": "uint256",
          "name": "_saleCategoryId",
          "type": "uint256"
        },
        {
          "indexed": false,
          "internalType": "uint96",
          "name": "_newStartTime",
          "type": "uint96"
        },
        {
          "indexed": false,
          "internalType": "uint96",
          "name": "_newEndTime",
          "type": "uint96"
        }
      ],
      "name": "TimeUpdatedForSaleCategory",
      "type": "event"
    },
    {
      "anonymous": false,
      "inputs": [
        {
          "indexed": false,
          "internalType": "enum IController.PHASE_ID",
          "name": "phaseId",
          "type": "uint8"
        },
        {
          "indexed": false,
          "internalType": "uint96",
          "name": "tokensToReserve",
          "type": "uint96"
        }
      ],
      "name": "TokenToReserveUpdated",
      "type": "event"
    },
    {
      "anonymous": false,
      "inputs": [
        {
          "indexed": false,
          "internalType": "enum IController.PHASE_ID",
          "name": "phaseId",
          "type": "uint8"
        },
        {
          "indexed": false,
          "internalType": "uint96",
          "name": "numberOfTokensReserved",
          "type": "uint96"
        },
        {
          "indexed": false,
          "internalType": "address",
          "name": "receiver",
          "type": "address"
        }
      ],
      "name": "TokensReserved",
      "type": "event"
    },
    {
      "anonymous": false,
      "inputs": [
        {
          "indexed": false,
          "internalType": "address",
          "name": "account",
          "type": "address"
        }
      ],
      "name": "Unpaused",
      "type": "event"
    },
    {
      "anonymous": false,
      "inputs": [
        {
          "indexed": false,
          "internalType": "uint256",
          "name": "_saleCategoryId",
          "type": "uint256"
        }
      ],
      "name": "UnpausedSale",
      "type": "event"
    },
    {
      "inputs": [],
      "name": "EMPTY_BYTES",
      "outputs": [
        {
          "internalType": "bytes",
          "name": "",
          "type": "bytes"
        }
      ],
      "stateMutability": "view",
      "type": "function"
    },
    {
      "inputs": [],
      "name": "MAX_PHASES",
      "outputs": [
        {
          "internalType": "uint8",
          "name": "",
          "type": "uint8"
        }
      ],
      "stateMutability": "view",
      "type": "function"
    },
    {
      "inputs": [],
      "name": "NAME",
      "outputs": [
        {
          "internalType": "string",
          "name": "",
          "type": "string"
        }
      ],
      "stateMutability": "view",
      "type": "function"
    },
    {
      "inputs": [],
      "name": "VERSION",
      "outputs": [
        {
          "internalType": "string",
          "name": "",
          "type": "string"
        }
      ],
      "stateMutability": "view",
      "type": "function"
    },
    {
      "inputs": [],
      "name": "acceptOwnership",
      "outputs": [],
      "stateMutability": "nonpayable",
      "type": "function"
    },
    {
      "inputs": [
        {
          "internalType": "uint96",
          "name": "_startTime",
          "type": "uint96"
        },
        {
          "internalType": "uint96",
          "name": "_endTime",
          "type": "uint96"
        },
        {
          "internalType": "uint256",
          "name": "_price",
          "type": "uint256"
        },
        {
          "internalType": "bytes32",
          "name": "_merkleRoot",
          "type": "bytes32"
        },
        {
          "internalType": "uint64",
          "name": "_perWalletLimit",
          "type": "uint64"
        },
        {
          "internalType": "uint64",
          "name": "_perTransactionLimit",
          "type": "uint64"
        },
        {
          "internalType": "uint64",
          "name": "_supply",
          "type": "uint64"
        },
        {
          "internalType": "uint64",
          "name": "_keyCardPerAvatar",
          "type": "uint64"
        },
        {
          "internalType": "enum IController.PHASE_ID",
          "name": "_phase",
          "type": "uint8"
        },
        {
          "internalType": "bool",
          "name": "_isDiscountEnabled",
          "type": "bool"
        }
      ],
      "name": "addSale",
      "outputs": [],
      "stateMutability": "nonpayable",
      "type": "function"
    },
    {
      "inputs": [
        {
          "internalType": "uint256",
          "name": "_discountIndex",
          "type": "uint256"
        },
        {
          "internalType": "uint256",
          "name": "_discountedPrice",
          "type": "uint256"
        },
        {
          "internalType": "address",
          "name": "_receiverAddress",
          "type": "address"
        },
        {
          "internalType": "bytes",
          "name": "_signature",
          "type": "bytes"
        }
      ],
      "name": "checkDiscountCodeValidity",
      "outputs": [
        {
          "internalType": "bool",
          "name": "",
          "type": "bool"
        }
      ],
      "stateMutability": "view",
      "type": "function"
    },
    {
      "inputs": [
        {
          "internalType": "enum IController.PHASE_ID",
          "name": "_phaseId",
          "type": "uint8"
        }
      ],
      "name": "checkIfTokenReservedForPhase",
      "outputs": [
        {
          "internalType": "bool",
          "name": "",
          "type": "bool"
        }
      ],
      "stateMutability": "view",
      "type": "function"
    },
    {
      "inputs": [
        {
          "internalType": "uint256",
          "name": "_saleCategoryId",
          "type": "uint256"
        },
        {
          "internalType": "uint64",
          "name": "_newKeyCardRatio",
          "type": "uint64"
        }
      ],
      "name": "editKeyCardRatioOfSaleCategory",
      "outputs": [],
      "stateMutability": "nonpayable",
      "type": "function"
    },
    {
      "inputs": [
        {
          "internalType": "uint256",
          "name": "_saleCategoryId",
          "type": "uint256"
        },
        {
          "internalType": "bytes32",
          "name": "_newMerkleRoot",
          "type": "bytes32"
        }
      ],
      "name": "editMerkleRootOfSaleCategory",
      "outputs": [],
      "stateMutability": "nonpayable",
      "type": "function"
    },
    {
      "inputs": [
        {
          "internalType": "uint256",
          "name": "_saleCategoryId",
          "type": "uint256"
        },
        {
          "internalType": "uint64",
          "name": "_newPerWalletLimit",
          "type": "uint64"
        },
        {
          "internalType": "uint64",
          "name": "_newPerTransactionLimit",
          "type": "uint64"
        }
      ],
      "name": "editPerLimitOfSaleCategory",
      "outputs": [],
      "stateMutability": "nonpayable",
      "type": "function"
    },
    {
      "inputs": [
        {
          "internalType": "uint256",
          "name": "_saleCategoryId",
          "type": "uint256"
        },
        {
          "internalType": "uint256",
          "name": "_newPrice",
          "type": "uint256"
        }
      ],
      "name": "editPriceOfSaleCategory",
      "outputs": [],
      "stateMutability": "nonpayable",
      "type": "function"
    },
    {
      "inputs": [
        {
          "internalType": "uint256",
          "name": "_saleCategoryId",
          "type": "uint256"
        },
        {
          "internalType": "uint96",
          "name": "_newStartTime",
          "type": "uint96"
        },
        {
          "internalType": "uint96",
          "name": "_newEndTime",
          "type": "uint96"
        }
      ],
      "name": "editSaleTimeOfSaleCategory",
      "outputs": [],
      "stateMutability": "nonpayable",
      "type": "function"
    },
    {
      "inputs": [
        {
          "internalType": "uint256",
          "name": "_saleCategoryId",
          "type": "uint256"
        },
        {
          "internalType": "uint64",
          "name": "_newTokensSupply",
          "type": "uint64"
        }
      ],
      "name": "editSupplyOfSaleCategory",
      "outputs": [],
      "stateMutability": "nonpayable",
      "type": "function"
    },
    {
      "inputs": [],
      "name": "getAvatar",
      "outputs": [
        {
          "internalType": "address",
          "name": "",
          "type": "address"
        }
      ],
      "stateMutability": "view",
      "type": "function"
    },
    {
      "inputs": [],
      "name": "getCurrentPhase",
      "outputs": [
        {
          "internalType": "enum IController.PHASE_ID",
          "name": "",
          "type": "uint8"
        }
      ],
      "stateMutability": "view",
      "type": "function"
    },
    {
      "inputs": [],
      "name": "getDiscountSigner",
      "outputs": [
        {
          "internalType": "address",
          "name": "",
          "type": "address"
        }
      ],
      "stateMutability": "view",
      "type": "function"
    },
    {
      "inputs": [],
      "name": "getKeyCard",
      "outputs": [
        {
          "internalType": "address",
          "name": "",
          "type": "address"
        }
      ],
      "stateMutability": "view",
      "type": "function"
    },
    {
      "inputs": [
        {
          "internalType": "uint256",
          "name": "_saleCategoryId",
          "type": "uint256"
        }
      ],
      "name": "getSaleCategory",
      "outputs": [
        {
          "components": [
            {
              "internalType": "uint256",
              "name": "price",
              "type": "uint256"
            },
            {
              "internalType": "bytes32",
              "name": "merkleRoot",
              "type": "bytes32"
            },
            {
              "internalType": "uint64",
              "name": "perWalletLimit",
              "type": "uint64"
            },
            {
              "internalType": "uint64",
              "name": "perTransactionLimit",
              "type": "uint64"
            },
            {
              "internalType": "uint64",
              "name": "supply",
              "type": "uint64"
            },
            {
              "internalType": "uint64",
              "name": "tokensMinted",
              "type": "uint64"
            },
            {
              "internalType": "uint64",
              "name": "keyCardPerAvatar",
              "type": "uint64"
            },
            {
              "internalType": "uint96",
              "name": "startTime",
              "type": "uint96"
            },
            {
              "internalType": "uint96",
              "name": "endTime",
              "type": "uint96"
            },
            {
              "internalType": "enum IController.PHASE_ID",
              "name": "phase",
              "type": "uint8"
            },
            {
              "internalType": "bool",
              "name": "paused",
              "type": "bool"
            },
            {
              "internalType": "bool",
              "name": "isDiscountEnabled",
              "type": "bool"
            }
          ],
          "internalType": "struct IController.SaleCategory",
          "name": "",
          "type": "tuple"
        }
      ],
      "stateMutability": "view",
      "type": "function"
    },
    {
      "inputs": [],
      "name": "getSaleCategoryCounter",
      "outputs": [
        {
          "internalType": "uint256",
          "name": "counter",
          "type": "uint256"
        }
      ],
      "stateMutability": "view",
      "type": "function"
    },
    {
      "inputs": [
        {
          "internalType": "enum IController.PHASE_ID",
          "name": "_phaseId",
          "type": "uint8"
        }
      ],
      "name": "getTokensToReserveInPhase",
      "outputs": [
        {
          "internalType": "uint96",
          "name": "",
          "type": "uint96"
        }
      ],
      "stateMutability": "view",
      "type": "function"
    },
    {
      "inputs": [
        {
          "internalType": "address",
          "name": "_newAvatar",
          "type": "address"
        },
        {
          "internalType": "address",
          "name": "_newKeyCard",
          "type": "address"
        },
        {
          "internalType": "address",
          "name": "_newDiscountSigner",
          "type": "address"
        },
        {
          "internalType": "address[]",
          "name": "_payees",
          "type": "address[]"
        },
        {
          "internalType": "uint256[]",
          "name": "_shares",
          "type": "uint256[]"
        },
        {
          "internalType": "uint96[]",
          "name": "_tokensToReserveInPhase",
          "type": "uint96[]"
        }
      ],
      "name": "initialize",
      "outputs": [],
      "stateMutability": "nonpayable",
      "type": "function"
    },
    {
      "inputs": [
        {
          "internalType": "address",
          "name": "_receiver",
          "type": "address"
        },
        {
          "internalType": "uint96",
          "name": "_numberOfTokens",
          "type": "uint96"
        },
        {
          "internalType": "bytes32[]",
          "name": "_proofs",
          "type": "bytes32[]"
        },
        {
          "internalType": "uint256",
          "name": "_saleId",
          "type": "uint256"
        }
      ],
      "name": "mintAllowlisted",
      "outputs": [],
      "stateMutability": "payable",
      "type": "function"
    },
    {
      "inputs": [
        {
          "internalType": "address",
          "name": "_receiver",
          "type": "address"
        },
        {
          "internalType": "uint96",
          "name": "_numberOfTokens",
          "type": "uint96"
        },
        {
          "internalType": "uint256",
          "name": "_saleId",
          "type": "uint256"
        },
        {
          "internalType": "uint256",
          "name": "_discountIndex",
          "type": "uint256"
        },
        {
          "internalType": "uint256",
          "name": "_discountedPrice",
          "type": "uint256"
        },
        {
          "internalType": "bytes",
          "name": "_signature",
          "type": "bytes"
        }
      ],
      "name": "mintDiscounted",
      "outputs": [],
      "stateMutability": "payable",
      "type": "function"
    },
    {
      "inputs": [
        {
          "internalType": "address",
          "name": "_receiver",
          "type": "address"
        },
        {
          "internalType": "uint96",
          "name": "_numberOfTokens",
          "type": "uint96"
        },
        {
          "internalType": "bytes32[]",
          "name": "_proofs",
          "type": "bytes32[]"
        },
        {
          "internalType": "uint256",
          "name": "_saleId",
          "type": "uint256"
        },
        {
          "internalType": "uint256",
          "name": "_discountIndex",
          "type": "uint256"
        },
        {
          "internalType": "uint256",
          "name": "_discountedPrice",
          "type": "uint256"
        },
        {
          "internalType": "bytes",
          "name": "_signature",
          "type": "bytes"
        }
      ],
      "name": "mintDiscountedAllowlist",
      "outputs": [],
      "stateMutability": "payable",
      "type": "function"
    },
    {
      "inputs": [
        {
          "internalType": "address",
          "name": "_receiver",
          "type": "address"
        },
        {
          "internalType": "uint96",
          "name": "_numberOfTokens",
          "type": "uint96"
        },
        {
          "internalType": "uint256",
          "name": "_saleId",
          "type": "uint256"
        }
      ],
      "name": "mintPublic",
      "outputs": [],
      "stateMutability": "payable",
      "type": "function"
    },
    {
      "inputs": [],
      "name": "owner",
      "outputs": [
        {
          "internalType": "address",
          "name": "",
          "type": "address"
        }
      ],
      "stateMutability": "view",
      "type": "function"
    },
    {
      "inputs": [],
      "name": "pause",
      "outputs": [],
      "stateMutability": "nonpayable",
      "type": "function"
    },
    {
      "inputs": [],
      "name": "paused",
      "outputs": [
        {
          "internalType": "bool",
          "name": "",
          "type": "bool"
        }
      ],
      "stateMutability": "view",
      "type": "function"
    },
    {
      "inputs": [
        {
          "internalType": "uint256",
          "name": "index",
          "type": "uint256"
        }
      ],
      "name": "payee",
      "outputs": [
        {
          "internalType": "address",
          "name": "",
          "type": "address"
        }
      ],
      "stateMutability": "view",
      "type": "function"
    },
    {
      "inputs": [],
      "name": "pendingOwner",
      "outputs": [
        {
          "internalType": "address",
          "name": "",
          "type": "address"
        }
      ],
      "stateMutability": "view",
      "type": "function"
    },
    {
      "inputs": [
        {
          "internalType": "address",
          "name": "account",
          "type": "address"
        }
      ],
      "name": "releasable",
      "outputs": [
        {
          "internalType": "uint256",
          "name": "",
          "type": "uint256"
        }
      ],
      "stateMutability": "view",
      "type": "function"
    },
    {
      "inputs": [
        {
          "internalType": "contract IERC20Upgradeable",
          "name": "token",
          "type": "address"
        },
        {
          "internalType": "address",
          "name": "account",
          "type": "address"
        }
      ],
      "name": "releasable",
      "outputs": [
        {
          "internalType": "uint256",
          "name": "",
          "type": "uint256"
        }
      ],
      "stateMutability": "view",
      "type": "function"
    },
    {
      "inputs": [
        {
          "internalType": "address payable",
          "name": "account",
          "type": "address"
        }
      ],
      "name": "release",
      "outputs": [],
      "stateMutability": "nonpayable",
      "type": "function"
    },
    {
      "inputs": [
        {
          "internalType": "contract IERC20Upgradeable",
          "name": "token",
          "type": "address"
        },
        {
          "internalType": "address",
          "name": "account",
          "type": "address"
        }
      ],
      "name": "release",
      "outputs": [],
      "stateMutability": "nonpayable",
      "type": "function"
    },
    {
      "inputs": [
        {
          "internalType": "contract IERC20Upgradeable",
          "name": "token",
          "type": "address"
        },
        {
          "internalType": "address",
          "name": "account",
          "type": "address"
        }
      ],
      "name": "released",
      "outputs": [
        {
          "internalType": "uint256",
          "name": "",
          "type": "uint256"
        }
      ],
      "stateMutability": "view",
      "type": "function"
    },
    {
      "inputs": [
        {
          "internalType": "address",
          "name": "account",
          "type": "address"
        }
      ],
      "name": "released",
      "outputs": [
        {
          "internalType": "uint256",
          "name": "",
          "type": "uint256"
        }
      ],
      "stateMutability": "view",
      "type": "function"
    },
    {
      "inputs": [],
      "name": "renounceOwnership",
      "outputs": [],
      "stateMutability": "nonpayable",
      "type": "function"
    },
    {
      "inputs": [
        {
          "internalType": "enum IController.PHASE_ID",
          "name": "_phaseId",
          "type": "uint8"
        }
      ],
      "name": "reserveTokens",
      "outputs": [],
      "stateMutability": "nonpayable",
      "type": "function"
    },
    {
      "inputs": [
        {
          "internalType": "address",
          "name": "_newAvatar",
          "type": "address"
        }
      ],
      "name": "setAvatar",
      "outputs": [],
      "stateMutability": "nonpayable",
      "type": "function"
    },
    {
      "inputs": [
        {
          "internalType": "address",
          "name": "_newDiscountSigner",
          "type": "address"
        }
      ],
      "name": "setDiscountSigner",
      "outputs": [],
      "stateMutability": "nonpayable",
      "type": "function"
    },
    {
      "inputs": [
        {
          "internalType": "address",
          "name": "_newKeyCard",
          "type": "address"
        }
      ],
      "name": "setKeyCard",
      "outputs": [],
      "stateMutability": "nonpayable",
      "type": "function"
    },
    {
      "inputs": [
        {
          "internalType": "enum IController.PHASE_ID",
          "name": "_newPhase",
          "type": "uint8"
        }
      ],
      "name": "setNewPhase",
      "outputs": [],
      "stateMutability": "nonpayable",
      "type": "function"
    },
    {
      "inputs": [
        {
          "internalType": "enum IController.PHASE_ID[]",
          "name": "_phaseId",
          "type": "uint8[]"
        },
        {
          "internalType": "uint96[]",
          "name": "_numberOfTokens",
          "type": "uint96[]"
        }
      ],
      "name": "setTokensToReserveInPhase",
      "outputs": [],
      "stateMutability": "nonpayable",
      "type": "function"
    },
    {
      "inputs": [
        {
          "internalType": "address",
          "name": "account",
          "type": "address"
        }
      ],
      "name": "shares",
      "outputs": [
        {
          "internalType": "uint256",
          "name": "",
          "type": "uint256"
        }
      ],
      "stateMutability": "view",
      "type": "function"
    },
    {
      "inputs": [
        {
          "internalType": "uint256",
          "name": "_saleCategoryId",
          "type": "uint256"
        },
        {
          "internalType": "bool",
          "name": "_isDiscounted",
          "type": "bool"
        }
      ],
      "name": "toggleDiscountOfSaleCategory",
      "outputs": [],
      "stateMutability": "nonpayable",
      "type": "function"
    },
    {
      "inputs": [
        {
          "internalType": "uint256",
          "name": "_saleCategoryId",
          "type": "uint256"
        },
        {
          "internalType": "bool",
          "name": "_isPaused",
          "type": "bool"
        }
      ],
      "name": "togglePauseSale",
      "outputs": [],
      "stateMutability": "nonpayable",
      "type": "function"
    },
    {
      "inputs": [
        {
          "internalType": "uint256",
          "name": "_saleId",
          "type": "uint256"
        },
        {
          "internalType": "address",
          "name": "_receiver",
          "type": "address"
        }
      ],
      "name": "tokensMintedByOwnerInSale",
      "outputs": [
        {
          "internalType": "uint256",
          "name": "",
          "type": "uint256"
        }
      ],
      "stateMutability": "view",
      "type": "function"
    },
    {
      "inputs": [
        {
          "internalType": "contract IERC20Upgradeable",
          "name": "token",
          "type": "address"
        }
      ],
      "name": "totalReleased",
      "outputs": [
        {
          "internalType": "uint256",
          "name": "",
          "type": "uint256"
        }
      ],
      "stateMutability": "view",
      "type": "function"
    },
    {
      "inputs": [],
      "name": "totalReleased",
      "outputs": [
        {
          "internalType": "uint256",
          "name": "",
          "type": "uint256"
        }
      ],
      "stateMutability": "view",
      "type": "function"
    },
    {
      "inputs": [],
      "name": "totalShares",
      "outputs": [
        {
          "internalType": "uint256",
          "name": "",
          "type": "uint256"
        }
      ],
      "stateMutability": "view",
      "type": "function"
    },
    {
      "inputs": [
        {
          "internalType": "address",
          "name": "newOwner",
          "type": "address"
        }
      ],
      "name": "transferOwnership",
      "outputs": [],
      "stateMutability": "nonpayable",
      "type": "function"
    },
    {
      "inputs": [],
      "name": "unpause",
      "outputs": [],
      "stateMutability": "nonpayable",
      "type": "function"
    },
    {
      "stateMutability": "payable",
      "type": "receive"
    }
  ],
  "numDeployments": 4,
  "solcInputHash": "b5604cc99e6b345d88f963b18ac06020",
  "bytecode": "0x608060405234801561001057600080fd5b506155ce80620000216000396000f3fe60806040526004361061034e5760003560e01c806395e2b0a3116101bb578063c45ac050116100f7578063e18a35a911610095578063e88b77371161006f578063e88b773714610a55578063f2fde38b14610a7c578063f814e11c14610a9c578063ffa1ad7414610aaf57600080fd5b8063e18a35a914610a02578063e30c397814610a22578063e33b7de314610a4057600080fd5b8063d0d225be116100d1578063d0d225be1461096b578063d1455b551461098b578063d79779b2146109ab578063dbdf9ab6146109e257600080fd5b8063c45ac050146108f5578063ce7c2ac214610915578063cfe828451461094b57600080fd5b8063aa8b20f611610164578063b58e0ffa1161013e578063b58e0ffa1461088b578063bcce14e3146108ab578063bd2c1cf0146108cb578063c4025d3b146108e057600080fd5b8063aa8b20f614610827578063ac6be1011461084b578063b3476b221461086b57600080fd5b8063a3a40ea511610195578063a3a40ea51461079c578063a3f4df7e146107be578063a3f8eace1461080757600080fd5b806395e2b0a3146107015780639761d8a41461072e5780639852595c1461076657600080fd5b8063406072a91161028a5780636f463b291161023357806379ba50971161020d57806379ba5097146106995780638456cb59146106ae5780638b83209b146106c35780638da5cb5b146106e357600080fd5b80636f463b29146106445780636fe2602a14610664578063715018a61461068457600080fd5b80634ba58860116102645780634ba58860146105c85780635c975abb146105e8578063674dceea1461060057600080fd5b8063406072a91461054e578063462e0c481461059557806348b75044146105a857600080fd5b806310de3ee7116102f757806329083601116102d157806329083601146104ca5780633a98ef39146104ea5780633c3668b0146105095780633f4ba83a1461053957600080fd5b806310de3ee71461046a57806313c769bc1461048a57806319165587146104aa57600080fd5b8063086cfca811610328578063086cfca81461040a5780630a1fb57c1461042a578063101ac9fd1461043d57600080fd5b8063036945b71461039c5780630373863d146103d557806305db4bde146103f757600080fd5b36610397577f6ef95f06320e7a25a04a175ca677b7052bdd97131872c2192525a629f51be77033604080516001600160a01b0390921682523460208301520160405180910390a1005b600080fd5b3480156103a857600080fd5b506103bf6040518060200160405280600081525081565b6040516103cc91906149eb565b60405180910390f35b3480156103e157600080fd5b506103f56103f0366004614b06565b610af8565b005b6103f5610405366004614c4b565b610b69565b34801561041657600080fd5b506103f5610425366004614cc7565b610b90565b6103f5610438366004614ce4565b610ba4565b34801561044957600080fd5b50610452610bd8565b6040516001600160a01b0390911681526020016103cc565b34801561047657600080fd5b506103f5610485366004614d30565b610bf2565b34801561049657600080fd5b506103f56104a5366004614cc7565b610c16565b3480156104b657600080fd5b506103f56104c5366004614cc7565b610c27565b3480156104d657600080fd5b506103f56104e5366004614cc7565b610d97565b3480156104f657600080fd5b5060fb545b6040519081526020016103cc565b34801561051557600080fd5b50610529610524366004614d60565b610da8565b60405190151581526020016103cc565b34801561054557600080fd5b506103f5610db9565b34801561055a57600080fd5b506104fb610569366004614d7b565b6001600160a01b0391821660009081526101016020908152604080832093909416825291909152205490565b6103f56105a3366004614dee565b610dcb565b3480156105b457600080fd5b506103f56105c3366004614d7b565b610e03565b3480156105d457600080fd5b506103f56105e3366004614d60565b610f99565b3480156105f457600080fd5b5060335460ff16610529565b34801561060c57600080fd5b506104fb61061b366004614e59565b6000918252610131602090815260408084206001600160a01b0393909316845291905290205490565b34801561065057600080fd5b506103f561065f366004614e7e565b610faa565b34801561067057600080fd5b506103f561067f366004614ea0565b610fbc565b34801561069057600080fd5b506103f5610fcf565b3480156106a557600080fd5b506103f5610fe1565b3480156106ba57600080fd5b506103f561106c565b3480156106cf57600080fd5b506104526106de366004614edc565b61107c565b3480156106ef57600080fd5b506065546001600160a01b0316610452565b34801561070d57600080fd5b5061072161071c366004614edc565b6110ac565b6040516103cc9190614f2d565b34801561073a57600080fd5b5061074e610749366004614d60565b611116565b6040516001600160601b0390911681526020016103cc565b34801561077257600080fd5b506104fb610781366004614cc7565b6001600160a01b0316600090815260fe602052604090205490565b3480156107a857600080fd5b506107b1611121565b6040516103cc9190615038565b3480156107ca57600080fd5b506103bf6040518060400160405280601681526020017f50616e63686162686f6f7420436f6e74726f6c6c65720000000000000000000081525081565b34801561081357600080fd5b506104fb610822366004614cc7565b611130565b34801561083357600080fd5b5061012d5461010090046001600160a01b0316610452565b34801561085757600080fd5b506103f561086636600461505e565b611178565b34801561087757600080fd5b506103f561088636600461510e565b61119e565b34801561089757600080fd5b506105296108a636600461513a565b6111b0565b3480156108b757600080fd5b506103f56108c63660046151f8565b6111c9565b3480156108d757600080fd5b506104fb6113a4565b3480156108ec57600080fd5b506104526113ae565b34801561090157600080fd5b506104fb610910366004614d7b565b6113c3565b34801561092157600080fd5b506104fb610930366004614cc7565b6001600160a01b0316600090815260fd602052604090205490565b34801561095757600080fd5b506103f561096636600461510e565b6114a1565b34801561097757600080fd5b506103f5610986366004614d60565b6114b3565b34801561099757600080fd5b506103f56109a6366004614d30565b6114c4565b3480156109b757600080fd5b506104fb6109c6366004614cc7565b6001600160a01b03166000908152610100602052604090205490565b3480156109ee57600080fd5b506103f56109fd366004614e7e565b6114e4565b348015610a0e57600080fd5b506103f5610a1d36600461530a565b6114f6565b348015610a2e57600080fd5b506097546001600160a01b0316610452565b348015610a4c57600080fd5b5060fc546104fb565b348015610a6157600080fd5b50610a6a600381565b60405160ff90911681526020016103cc565b348015610a8857600080fd5b506103f5610a97366004614cc7565b611509565b6103f5610aaa36600461533d565b61157a565b348015610abb57600080fd5b506103bf6040518060400160405280600581526020017f302e312e3000000000000000000000000000000000000000000000000000000081525081565b610b006115a5565b610b0a82826115ff565b60005b8251811015610b6457610b52838281518110610b2b57610b2b6153e6565b6020026020010151838381518110610b4557610b456153e6565b602002602001015161163a565b80610b5c81615412565b915050610b0d565b505050565b6000610b74856116cf565b9050610b8781888888888888600161183e565b50505050505050565b610b986115a5565b610ba181611a51565b50565b6000610baf826116cf565b9050610bd28185858560008060405180602001604052806000815250600061183e565b50505050565b6000610bed61012f546001600160a01b031690565b905090565b610bfa6115a5565b8015610c0d57610c0982611acd565b5050565b610c0982611c74565b610c1e6115a5565b610ba181611e1e565b6001600160a01b038116600090815260fd6020526040902054610ca05760405162461bcd60e51b815260206004820152602660248201527f5061796d656e7453706c69747465723a206163636f756e7420686173206e6f2060448201526573686172657360d01b60648201526084015b60405180910390fd5b6000610cab82611130565b905080600003610d115760405162461bcd60e51b815260206004820152602b60248201527f5061796d656e7453706c69747465723a206163636f756e74206973206e6f742060448201526a191d59481c185e5b595b9d60aa1b6064820152608401610c97565b8060fc6000828254610d23919061542b565b90915550506001600160a01b038216600090815260fe60205260409020805482019055610d508282611e79565b604080516001600160a01b0384168152602081018390527fdf20fd1e76bc69d672e4814fafb2c449bba3a5369d8359adf9e05e6fde87b05691015b60405180910390a15050565b610d9f6115a5565b610ba181611f92565b6000610db382611fe8565b92915050565b610dc16115a5565b610dc961202c565b565b6000610dd6826116cf565b9050610dfb81878787878760008060405180602001604052806000815250600061207e565b505050505050565b6001600160a01b038116600090815260fd6020526040902054610e775760405162461bcd60e51b815260206004820152602660248201527f5061796d656e7453706c69747465723a206163636f756e7420686173206e6f2060448201526573686172657360d01b6064820152608401610c97565b6000610e8383836113c3565b905080600003610ee95760405162461bcd60e51b815260206004820152602b60248201527f5061796d656e7453706c69747465723a206163636f756e74206973206e6f742060448201526a191d59481c185e5b595b9d60aa1b6064820152608401610c97565b6001600160a01b0383166000908152610100602052604081208054839290610f1290849061542b565b90915550506001600160a01b03808416600090815261010160209081526040808320938616835292905220805482019055610f4e8383836120a7565b604080516001600160a01b038481168252602082018490528516917f3be5b7a71e84ed12875d241991c70855ac5817d847039e17a9d895c1ceb0f18a910160405180910390a2505050565b610fa16115a5565b610ba181612127565b610fb26115a5565b610c098282612190565b610fc46115a5565b610b6483838361233e565b610fd76115a5565b610dc96000612521565b60975433906001600160a01b031681146110635760405162461bcd60e51b815260206004820152602960248201527f4f776e61626c6532537465703a2063616c6c6572206973206e6f74207468652060448201527f6e6577206f776e657200000000000000000000000000000000000000000000006064820152608401610c97565b610ba181612521565b6110746115a5565b610dc961253a565b600060ff8281548110611091576110916153e6565b6000918252602090912001546001600160a01b031692915050565b6040805161018081018252600080825260208201819052918101829052606081018290526080810182905260a0810182905260c0810182905260e08101829052610100810182905261012081018290526101408101829052610160810191909152610db3826116cf565b6000610db382612577565b6000610bed61012d5460ff1690565b60008061113c60fc5490565b611146904761542b565b9050611171838261116c866001600160a01b0316600090815260fe602052604090205490565b6125c1565b9392505050565b6111806115a5565b6111928a8a8a8a8a8a8a8a8a8a6125ff565b50505050505050505050565b6111a66115a5565b610c098282612891565b60006111be85858585612a4d565b90505b949350505050565b600054610100900460ff16158080156111e95750600054600160ff909116105b806112035750303b158015611203575060005460ff166001145b6112755760405162461bcd60e51b815260206004820152602e60248201527f496e697469616c697a61626c653a20636f6e747261637420697320616c72656160448201527f647920696e697469616c697a65640000000000000000000000000000000000006064820152608401610c97565b6000805460ff191660011790558015611298576000805461ff0019166101001790555b81516003146112d3576040517f67ba6e4300000000000000000000000000000000000000000000000000000000815260040160405180910390fd5b6112db612b5e565b6112e3612bd1565b6112eb612c44565b6112f58484612cb7565b6112fe87611a51565b61130786611e1e565b61131085611f92565b60005b82518110156113555761134381600281111561133157611331614ef5565b848381518110610b4557610b456153e6565b8061134d81615412565b915050611313565b508015610b87576000805461ff0019169055604051600181527f7f26b83ff96e1f2b6a682f133852f6798a09c465da95921460cefb38474024989060200160405180910390a150505050505050565b6000610bed612d2c565b6000610bed61012e546001600160a01b031690565b6001600160a01b0382166000908152610100602052604081205481906040517f70a082310000000000000000000000000000000000000000000000000000000081523060048201526001600160a01b038616906370a0823190602401602060405180830381865afa15801561143c573d6000803e3d6000fd5b505050506040513d601f19601f82011682018060405250810190611460919061543e565b61146a919061542b565b6001600160a01b03808616600090815261010160209081526040808320938816835292905220549091506111c190849083906125c1565b6114a96115a5565b610c098282612d38565b6114bb6115a5565b610ba181612ef3565b6114cc6115a5565b80156114db57610c0982612f50565b610c09826130f7565b6114ec6115a5565b610c0982826132a1565b6114fe6115a5565b610b64838383613450565b6115116115a5565b609780546001600160a01b0383166001600160a01b031990911681179091556115426065546001600160a01b031690565b6001600160a01b03167f38d16b8cac22d99fc7c124b9cd0de2d3fa1faef420bfe791d8c362d765e2270060405160405180910390a350565b6000611585856116cf565b905061159a818a8a8a8a8a8a8a8a600161207e565b505050505050505050565b6065546001600160a01b03163314610dc95760405162461bcd60e51b815260206004820181905260248201527f4f776e61626c653a2063616c6c6572206973206e6f7420746865206f776e65726044820152606401610c97565b8051825114610c09576040517f1e5233ee00000000000000000000000000000000000000000000000000000000815260040160405180910390fd5b61164382613628565b80610133600084600281111561165b5761165b614ef5565b600281111561166c5761166c614ef5565b815260200190815260200160002060006101000a8154816001600160601b0302191690836001600160601b031602179055507f814bb2ca83dc603a087712c268689fcc0ca58b78e3e2caa2af21ab0e5e25477c8282604051610d8b929190615457565b6040805161018081018252600080825260208201819052918101829052606081018290526080810182905260a0810182905260c0810182905260e081018290526101008101829052610120810182905261014081018290526101608101919091526117398261369d565b600082815261013060209081526040918290208251610180810184528154815260018201549281019290925260028082015467ffffffffffffffff80821695850195909552600160401b80820486166060860152600160801b820486166080860152600160c01b909104851660a0850152600383015494851660c08501526001600160601b03908504811660e0850152600160a01b90940490931661010083015260048101549192909161012084019160ff909116908111156117fe576117fe614ef5565b600281111561180f5761180f614ef5565b81526004919091015460ff61010082048116151560208401526201000090910416151560409091015292915050565b61184c8861012001516136ec565b6118558861374f565b61186a87876001600160601b0316878b61378c565b6000858152610131602090815260408083206001600160a01b038b168452909152812080546001600160601b03891692906118a690849061542b565b909155506118b79050888688613914565b8015611913576118c688613a89565b6118d284848985612a4d565b506118dc84613ac5565b6118ef836001600160601b03881661547b565b341461190e57604051631ee972f560e01b815260040160405180910390fd5b611947565b8751611928906001600160601b03881661547b565b341461194757604051631ee972f560e01b815260040160405180910390fd5b6000868960c0015167ffffffffffffffff166119639190615492565b61012d546040516340c10f1960e01b81526001600160a01b038b811660048301526001600160601b038b81166024840152939093169350610100909104909116906340c10f1990604401600060405180830381600087803b1580156119c757600080fd5b505af11580156119db573d6000803e3d6000fd5b505061012e546040516340c10f1960e01b81526001600160a01b038c811660048301526024820186905290911692506340c10f199150604401600060405180830381600087803b158015611a2e57600080fd5b505af1158015611a42573d6000803e3d6000fd5b50505050505050505050505050565b61012d80546001600160a01b038381166101008181027fffffffffffffffffffffff0000000000000000000000000000000000000000ff85161790945560408051949093049091168084526020840191909152917fd4de48e66b336cc79b77fc1b591b65bb68deecf4d200b4f7a8bf2de905d974c39101610d8b565b611ad68161369d565b6000611ae1826116cf565b600161014082018190526000848152610130602090815260409182902084518155908401518184015590830151600280830180546060870151608088015160a089015167ffffffffffffffff9687166001600160801b031990941693909317600160401b9287168302176001600160801b0316600160801b918716919091026001600160c01b031617600160c01b928616929092029190911790915560c086015160038501805460e08901516101008a0151939096166001600160a01b0319909116176001600160601b03958616909302929092176001600160a01b0316600160a01b949091169390930292909217909155610120840151600483018054959650869593949193909260ff1990911691908490811115611c0357611c03614ef5565b021790555061014082015160049091018054610160909301511515620100000262ff000019921515610100029290921662ffff0019909316929092171790556040517fe077d3b3de0015b16b2cf415d1cf12731d24026787498e2c7a3afd9e1578974890610d8b9084815260200190565b611c7d8161369d565b6000611c88826116cf565b600061014082018190528381526101306020908152604091829020835181559083015160018083019190915591830151600280830180546060870151608088015160a089015167ffffffffffffffff9687166001600160801b031990941693909317600160401b9287168302176001600160801b0316600160801b918716919091026001600160c01b031617600160c01b928616929092029190911790915560c086015160038501805460e08901516101008a0151939096166001600160a01b0319909116176001600160601b03958616909302929092176001600160a01b0316600160a01b949091169390930292909217909155610120840151600483018054959650869593949193909260ff1990911691908490811115611dad57611dad614ef5565b021790555061014082015160049091018054610160909301511515620100000262ff000019921515610100029290921662ffff0019909316929092171790556040517f0bfb3fb217a1dec741e7b46a6d5b89dabf174cc821b3a48d1100b25dbed50f8590610d8b9084815260200190565b61012e80546001600160a01b038381166001600160a01b031983168117909355604080519190921680825260208201939093527f8948754ceb204cbd00768f5392091735e97d9f63305edd2348491f3f141894479101610d8b565b80471015611ec95760405162461bcd60e51b815260206004820152601d60248201527f416464726573733a20696e73756666696369656e742062616c616e63650000006044820152606401610c97565b6000826001600160a01b03168260405160006040518083038185875af1925050503d8060008114611f16576040519150601f19603f3d011682016040523d82523d6000602084013e611f1b565b606091505b5050905080610b645760405162461bcd60e51b815260206004820152603a60248201527f416464726573733a20756e61626c6520746f2073656e642076616c75652c207260448201527f6563697069656e74206d617920686176652072657665727465640000000000006064820152608401610c97565b61012f80546001600160a01b0319166001600160a01b0383169081179091556040519081527ffa9dd674d746cabbc1a8705f0487bbe14c359b6447dac6dc42a0e5fc24d7a53e906020015b60405180910390a150565b6000610134600083600281111561200157612001614ef5565b600281111561201257612012614ef5565b815260208101919091526040016000205460ff1692915050565b612034613b11565b6033805460ff191690557f5db9ee0a495bf2e6ff9c91a7834c1ba4fdd244a5e8aa4e537bd38aeae4b073aa335b6040516001600160a01b03909116815260200160405180910390a1565b6120878a613b63565b61209787878b8d60200151613b9e565b6111928a8a8a888888888861183e565b604080516001600160a01b038416602482015260448082018490528251808303909101815260649091019091526020810180517bffffffffffffffffffffffffffffffffffffffffffffffffffffffff167fa9059cbb00000000000000000000000000000000000000000000000000000000179052610b64908490613c53565b612130816136ec565b61213981613628565b600061214482612577565b9050600061215183613d38565b7e518721c801ee0064d089bf8b73b1e9d0b1ed592fa3dc45e7121e2ed0d1aef6838383604051612183939291906154b5565b60405180910390a1505050565b6121998261369d565b60006121a4836116cf565b82815260008481526101306020908152604091829020835181559083015160018083019190915591830151600280830180546060870151608088015160a089015167ffffffffffffffff9687166001600160801b031990941693909317600160401b9287168302176001600160801b0316600160801b918716919091026001600160c01b031617600160c01b928616929092029190911790915560c086015160038501805460e08901516101008a0151939096166001600160a01b0319909116176001600160601b03958616909302929092176001600160a01b0316600160a01b949091169390930292909217909155610120840151600483018054959650869593949193909260ff19909116919084908111156122c4576122c4614ef5565b021790555061014082015160049091018054610160909301511515620100000262ff000019921515610100029290921662ffff0019909316929092171790556040517fe0e06bfeea5b345ddfe97edd79de79d3a8a08e557f8eee7a9333dfda7ca90bb4906121839085908590918252602082015260400190565b6123478361369d565b6123518282613d84565b600061235c846116cf565b6001600160601b0384811660e083019081528482166101008401908152600088815261013060209081526040918290208651815590860151600180830191909155918601516002808301805460608a015160808b015160a08c015167ffffffffffffffff9687166001600160801b031990941693909317600160401b9287168302176001600160801b0316600160801b918716919091026001600160c01b031617600160c01b928616929092029190911790915560c089015160038501805498519751919094166001600160a01b03199098169790971795881602949094176001600160a01b0316600160a01b95909616949094029490941790925561012084015160048401805495965086959193909260ff199290921691849081111561248657612486614ef5565b021790555061014082015160049091018054610160909301511515620100000262ff000019921515610100029290921662ffff0019909316929092171790556040517fa5d1c05d7cd489ecfcab9c7d580ef19c4ac3ccba2d65b9c034e13e305b82271f90612513908690869086909283526001600160601b03918216602084015216604082015260600190565b60405180910390a150505050565b609780546001600160a01b0319169055610ba181613e39565b612542613e8b565b6033805460ff191660011790557f62e78cea01bee320cd4e420270b5ea74000d11b0c9f74754ebdbfc544b05a2586120613390565b6000610133600083600281111561259057612590614ef5565b60028111156125a1576125a1614ef5565b81526020810191909152604001600020546001600160601b031692915050565b60fb546001600160a01b038416600090815260fd6020526040812054909183916125eb908661547b565b6125f591906154e9565b6111c1919061550b565b6126098a8a613d84565b6126138686613ede565b61262261013580546001019055565b600061262e6101355490565b905060006040518061018001604052808b81526020018a81526020018967ffffffffffffffff1681526020018867ffffffffffffffff1681526020018767ffffffffffffffff168152602001600067ffffffffffffffff1681526020018667ffffffffffffffff1681526020018d6001600160601b031681526020018c6001600160601b031681526020018560028111156126cb576126cb614ef5565b815260006020808301829052861515604093840152858252610130815290829020835181559083015160018083019190915591830151600280830180546060870151608088015160a089015167ffffffffffffffff9687166001600160801b031990941693909317600160401b9287168302176001600160801b0316600160801b918716919091026001600160c01b031617600160c01b928616929092029190911790915560c086015160038501805460e08901516101008a0151939096166001600160a01b0319909116176001600160601b03958616909302929092176001600160a01b0316600160a01b949091169390930292909217909155610120840151600483018054959650869593949193909260ff19909116919084908111156127f6576127f6614ef5565b021790555061014082015160049091018054610160909301511515620100000262ff000019921515610100029290921662ffff0019909316929092171790557f8d219cdbf5dae647eaf6d932e34aadba18b2b528554fc7508d3c642ffc293ecd8285600281111561286957612869614ef5565b6040805192835260ff90911660208301520160405180910390a1505050505050505050505050565b61289a8261369d565b60006128a5836116cf565b67ffffffffffffffff83811660c083019081526000868152610130602090815260409182902085518155908501516001808301919091559185015160028083018054606089015160808a015160a08b0151958a166001600160801b031990931692909217600160401b918a168202176001600160801b0316600160801b928a16929092026001600160c01b031691909117600160c01b94891694909402939093179055935160038301805460e08901516101008a0151939098166001600160a01b0319909116176001600160601b03978816909302929092176001600160a01b0316600160a01b96909116959095029490941790935561012084015160048401805495965086959193909260ff19909216919084908111156129c9576129c9614ef5565b021790555061014082015160049091018054610160909301511515620100000262ff000019921515610100029290921662ffff0019909316929092171790556040517fb051ce5a23a4b95c3b5e74be4a261fa630ef45f2d289d393758b26b9996e0a9390612183908590859091825267ffffffffffffffff16602082015260400190565b6000612a5885613f40565b604080516020808201889052818301879052606086811b6bffffffffffffffffffffffff1916908301527f3a2f2f50616e63686162686f6f7420446973636f756e7420436f6465000000006074830152825180830360700181526090830184528051908201207f19457468657265756d205369676e6564204d6573736167653a0a33320000000060b084015260cc8084018290528451808503909101815260ec909301909352815191012061012f54612b1b906001600160a01b03168286613f8d565b925082612b54576040517fef9d514300000000000000000000000000000000000000000000000000000000815260040160405180910390fd5b5050949350505050565b600054610100900460ff16612bc95760405162461bcd60e51b815260206004820152602b60248201527f496e697469616c697a61626c653a20636f6e7472616374206973206e6f74206960448201526a6e697469616c697a696e6760a81b6064820152608401610c97565b610dc9614115565b600054610100900460ff16612c3c5760405162461bcd60e51b815260206004820152602b60248201527f496e697469616c697a61626c653a20636f6e7472616374206973206e6f74206960448201526a6e697469616c697a696e6760a81b6064820152608401610c97565b610dc961418c565b600054610100900460ff16612caf5760405162461bcd60e51b815260206004820152602b60248201527f496e697469616c697a61626c653a20636f6e7472616374206973206e6f74206960448201526a6e697469616c697a696e6760a81b6064820152608401610c97565b610dc9614200565b600054610100900460ff16612d225760405162461bcd60e51b815260206004820152602b60248201527f496e697469616c697a61626c653a20636f6e7472616374206973206e6f74206960448201526a6e697469616c697a696e6760a81b6064820152608401610c97565b610c098282614272565b6000610bed6101355490565b612d418261369d565b6000612d4c836116cf565b67ffffffffffffffff8381166080830190815260008681526101306020908152604091829020855181559085015160018083019190915591850151600280830180546060890151965160a08a01519489166001600160801b031990921691909117600160401b9789168802176001600160801b0316600160801b918916919091026001600160c01b031617600160c01b938816939093029290921790915560c086015160038301805460e08901516101008a0151939098166001600160a01b0319909116176001600160601b03978816909602959095176001600160a01b0316600160a01b969091169590950294909417909255610120840151600483018054959650869593949193909260ff19909116918490811115612e6f57612e6f614ef5565b021790555061014082015160049091018054610160909301511515620100000262ff000019921515610100029290921662ffff0019909316929092171790556040517fd96161d72c61ee4a6e8beedde6bf85047686270a4ab726d89020724a0ffabee090612183908590859091825267ffffffffffffffff16602082015260400190565b612efc816143ff565b61012d805482919060ff19166001836002811115612f1c57612f1c614ef5565b02179055507fa6dcc92f45df25789d5639b7a0c97ba1edf3bb1c0b5dd3376fd96a0db87c464281604051611fdd9190615038565b612f598161369d565b6000612f64826116cf565b600161016082018190526000848152610130602090815260409182902084518155908401518184015590830151600280830180546060870151608088015160a089015167ffffffffffffffff9687166001600160801b031990941693909317600160401b9287168302176001600160801b0316600160801b918716919091026001600160c01b031617600160c01b928616929092029190911790915560c086015160038501805460e08901516101008a0151939096166001600160a01b0319909116176001600160601b03958616909302929092176001600160a01b0316600160a01b949091169390930292909217909155610120840151600483018054959650869593949193909260ff199091169190849081111561308657613086614ef5565b021790555061014082015160049091018054610160909301511515620100000262ff000019921515610100029290921662ffff0019909316929092171790556040517f116f7727ba934816eeaddb8501a368b75bf2bd43eac1a42f12e45014b07d9bcb90610d8b9084815260200190565b6131008161369d565b600061310b826116cf565b600061016082018190528381526101306020908152604091829020835181559083015160018083019190915591830151600280830180546060870151608088015160a089015167ffffffffffffffff9687166001600160801b031990941693909317600160401b9287168302176001600160801b0316600160801b918716919091026001600160c01b031617600160c01b928616929092029190911790915560c086015160038501805460e08901516101008a0151939096166001600160a01b0319909116176001600160601b03958616909302929092176001600160a01b0316600160a01b949091169390930292909217909155610120840151600483018054959650869593949193909260ff199091169190849081111561323057613230614ef5565b021790555061014082015160049091018054610160909301511515620100000262ff000019921515610100029290921662ffff0019909316929092171790556040517f7cc7287faeb3ff72ec95f1a48c949c862e9ffba6bfbcb0edc2bd9737fed3525590610d8b9084815260200190565b6132aa8261369d565b60006132b5836116cf565b6020818101848152600086815261013090925260409182902083518155905160018083019190915591830151600280830180546060870151608088015160a089015167ffffffffffffffff9687166001600160801b031990941693909317600160401b9287168302176001600160801b0316600160801b918716919091026001600160c01b031617600160c01b928616929092029190911790915560c086015160038501805460e08901516101008a0151939096166001600160a01b0319909116176001600160601b03958616909302929092176001600160a01b0316600160a01b949091169390930292909217909155610120840151600483018054959650869593949193909260ff19909116919084908111156133d6576133d6614ef5565b021790555061014082015160049091018054610160909301511515620100000262ff000019921515610100029290921662ffff0019909316929092171790556040517f08374d736a43ab178fb76ce1ab2cdcf7b81db5d2be760199bd01e6ae7580f840906121839085908590918252602082015260400190565b6134598361369d565b6134638282613ede565b600061346e846116cf565b67ffffffffffffffff8381166060830190815285821660408085019182526000898152610130602090815291902085518155908501516001808301919091559151600280830180549551608089015160a08a01519489166001600160801b031990981697909717600160401b9189168202176001600160801b0316600160801b978916979097026001600160c01b031696909617600160c01b938816939093029290921790915560c086015160038301805460e08901516101008a0151939098166001600160a01b0319909116176001600160601b03978816909602959095176001600160a01b0316600160a01b969091169590950294909417909255610120840151600483018054959650869593949193909260ff1990911691849081111561359a5761359a614ef5565b021790555061014082015160049091018054610160909301511515620100000262ff000019921515610100029290921662ffff0019909316929092171790556040517f5fa72752376c1b5f6ebabff284a9a38f6ac9184b52818709fa919063e96dcb2f906125139086908590879092835267ffffffffffffffff918216602084015216604082015260600190565b610134600082600281111561363f5761363f614ef5565b600281111561365057613650614ef5565b815260208101919091526040016000205460ff1615610ba157806040517f3ca13295000000000000000000000000000000000000000000000000000000008152600401610c979190615038565b806136a86101355490565b10806136b2575080155b15610ba1576040517f6e58dcc400000000000000000000000000000000000000000000000000000000815260048101829052602401610c97565b8060028111156136fe576136fe614ef5565b61012d5460ff16600281111561371657613716614ef5565b14610ba157806040517f48858fcb000000000000000000000000000000000000000000000000000000008152600401610c979190615038565b80610140015115610ba1576040517f8a98cbd000000000000000000000000000000000000000000000000000000000815260040160405180910390fd5b6000828152610131602090815260408083206001600160a01b038816845290915290205460e0820151426001600160601b039091161015806137dc5750428261010001516001600160601b031611155b15613813576040517fb7b2409700000000000000000000000000000000000000000000000000000000815260040160405180910390fd5b816060015167ffffffffffffffff1684111561385b576040517f73d430c800000000000000000000000000000000000000000000000000000000815260040160405180910390fd5b604082015167ffffffffffffffff16613874858361542b565b11156138ac576040517ff160fd2f00000000000000000000000000000000000000000000000000000000815260040160405180910390fd5b816080015167ffffffffffffffff16848360a0015167ffffffffffffffff166138d5919061542b565b111561390d576040517fa528427e00000000000000000000000000000000000000000000000000000000815260040160405180910390fd5b5050505050565b808360a001818151613926919061551e565b67ffffffffffffffff908116909152600084815261013060209081526040918290208751815590870151600180830191909155918701516002808301805460608b015160808c015160a08d01519589166001600160801b031990931692909217600160401b9189168202176001600160801b0316600160801b928916929092026001600160c01b031691909117600160c01b9488169490940293909317905560c089015160038401805460e08c01516101008d0151939098166001600160a01b0319909116176001600160601b03978816909402939093176001600160a01b0316600160a01b969091169590950294909417905561012087015160048201805489965092949193909260ff1916918490811115613a4557613a45614ef5565b021790555061014082015160049091018054610160909301511515620100000262ff000019921515610100029290921662ffff001990931692909217179055505050565b806101600151610ba1576040517f987a2af000000000000000000000000000000000000000000000000000000000815260040160405180910390fd5b6000818152610132602052604090819020805460ff19166001179055517f4e888c698f79093e0b267944840223bf0886d25ea92228451b5915c7278fc16a90611fdd9083815260200190565b60335460ff16610dc95760405162461bcd60e51b815260206004820152601460248201527f5061757361626c653a206e6f74207061757365640000000000000000000000006044820152606401610c97565b6020810151610ba1576040517f84a24e9000000000000000000000000000000000000000000000000000000000815260040160405180910390fd5b6040516bffffffffffffffffffffffff19606084901b1660208201526000906034016040516020818303038152906040528051906020012090506000613c1a8686808060200260200160405190810160405280939291908181526020018383602002808284376000920191909152508792508691506144629050565b905080610dfb576040517f7d4f213800000000000000000000000000000000000000000000000000000000815260040160405180910390fd5b6000613ca8826040518060400160405280602081526020017f5361666545524332303a206c6f772d6c6576656c2063616c6c206661696c6564815250856001600160a01b03166144789092919063ffffffff16565b805190915015610b645780806020019051810190613cc69190615546565b610b645760405162461bcd60e51b815260206004820152602a60248201527f5361666545524332303a204552433230206f7065726174696f6e20646964206e60448201527f6f742073756363656564000000000000000000000000000000000000000000006064820152608401610c97565b60016101346000836002811115613d5157613d51614ef5565b6002811115613d6257613d62614ef5565b81526020810191909152604001600020805460ff191691151591909117905550565b816001600160601b0316816001600160601b031611613de2576040517f54c06fbb0000000000000000000000000000000000000000000000000000000081526001600160601b03808416600483015282166024820152604401610c97565b426001600160601b0316826001600160601b03161015610c09576040517f7d9647250000000000000000000000000000000000000000000000000000000081526001600160601b0383166004820152602401610c97565b606580546001600160a01b038381166001600160a01b0319831681179093556040519116919082907f8be0079c531659141344cd1fd0a4f28419497f9722a3daafe3b4186f6b6457e090600090a35050565b60335460ff1615610dc95760405162461bcd60e51b815260206004820152601060248201527f5061757361626c653a20706175736564000000000000000000000000000000006044820152606401610c97565b8167ffffffffffffffff168167ffffffffffffffff161115610c09576040517f2d28191f00000000000000000000000000000000000000000000000000000000815267ffffffffffffffff808316600483015283166024820152604401610c97565b6000818152610132602052604090205460ff1615610ba1576040517fbd25304a00000000000000000000000000000000000000000000000000000000815260048101829052602401610c97565b6000806000613f9c8585614487565b90925090506000816004811115613fb557613fb5614ef5565b148015613fd35750856001600160a01b0316826001600160a01b0316145b15613fe357600192505050611171565b600080876001600160a01b0316631626ba7e60e01b888860405160240161400b929190615563565b60408051601f198184030181529181526020820180517bffffffffffffffffffffffffffffffffffffffffffffffffffffffff167fffffffff00000000000000000000000000000000000000000000000000000000909416939093179092529051614076919061557c565b600060405180830381855afa9150503d80600081146140b1576040519150601f19603f3d011682016040523d82523d6000602084013e6140b6565b606091505b50915091508180156140c9575080516020145b8015614109575080517f1626ba7e0000000000000000000000000000000000000000000000000000000090614107908301602090810190840161543e565b145b98975050505050505050565b600054610100900460ff166141805760405162461bcd60e51b815260206004820152602b60248201527f496e697469616c697a61626c653a20636f6e7472616374206973206e6f74206960448201526a6e697469616c697a696e6760a81b6064820152608401610c97565b6033805460ff19169055565b600054610100900460ff166141f75760405162461bcd60e51b815260206004820152602b60248201527f496e697469616c697a61626c653a20636f6e7472616374206973206e6f74206960448201526a6e697469616c697a696e6760a81b6064820152608401610c97565b610dc933612521565b600054610100900460ff1661426b5760405162461bcd60e51b815260206004820152602b60248201527f496e697469616c697a61626c653a20636f6e7472616374206973206e6f74206960448201526a6e697469616c697a696e6760a81b6064820152608401610c97565b600160c955565b600054610100900460ff166142dd5760405162461bcd60e51b815260206004820152602b60248201527f496e697469616c697a61626c653a20636f6e7472616374206973206e6f74206960448201526a6e697469616c697a696e6760a81b6064820152608401610c97565b80518251146143545760405162461bcd60e51b815260206004820152603260248201527f5061796d656e7453706c69747465723a2070617965657320616e64207368617260448201527f6573206c656e677468206d69736d6174636800000000000000000000000000006064820152608401610c97565b60008251116143a55760405162461bcd60e51b815260206004820152601a60248201527f5061796d656e7453706c69747465723a206e6f207061796565730000000000006044820152606401610c97565b60005b8251811015610b64576143ed8382815181106143c6576143c66153e6565b60200260200101518383815181106143e0576143e06153e6565b60200260200101516144cc565b806143f781615412565b9150506143a8565b80600281111561441157614411614ef5565b61012d5460ff16600281111561442957614429614ef5565b03610ba157806040517f12d1b45b000000000000000000000000000000000000000000000000000000008152600401610c979190615038565b60008261446f85846146ce565b14949350505050565b60606111c1848460008561471b565b60008082516041036144bd5760208301516040840151606085015160001a6144b18782858561480d565b945094505050506144c5565b506000905060025b9250929050565b6001600160a01b0382166145485760405162461bcd60e51b815260206004820152602c60248201527f5061796d656e7453706c69747465723a206163636f756e74206973207468652060448201527f7a65726f206164647265737300000000000000000000000000000000000000006064820152608401610c97565b600081116145985760405162461bcd60e51b815260206004820152601d60248201527f5061796d656e7453706c69747465723a207368617265732061726520300000006044820152606401610c97565b6001600160a01b038216600090815260fd6020526040902054156146245760405162461bcd60e51b815260206004820152602b60248201527f5061796d656e7453706c69747465723a206163636f756e7420616c726561647960448201527f20686173207368617265730000000000000000000000000000000000000000006064820152608401610c97565b60ff8054600181019091557fe08ec2af2cfc251225e1968fd6ca21e4044f129bffa95bac3503be8bdb30a3670180546001600160a01b0319166001600160a01b038416908117909155600090815260fd6020526040902081905560fb5461468c90829061542b565b60fb55604080516001600160a01b0384168152602081018390527f40c340f65e17194d14ddddb073d3c9f888e3cb52b5aae0c6c7706b4fbc905fac9101610d8b565b600081815b8451811015614713576146ff828683815181106146f2576146f26153e6565b60200260200101516148d1565b91508061470b81615412565b9150506146d3565b509392505050565b6060824710156147935760405162461bcd60e51b815260206004820152602660248201527f416464726573733a20696e73756666696369656e742062616c616e636520666f60448201527f722063616c6c00000000000000000000000000000000000000000000000000006064820152608401610c97565b600080866001600160a01b031685876040516147af919061557c565b60006040518083038185875af1925050503d80600081146147ec576040519150601f19603f3d011682016040523d82523d6000602084013e6147f1565b606091505b5091509150614802878383876148fd565b979650505050505050565b6000807f7fffffffffffffffffffffffffffffff5d576e7357a4501ddfe92f46681b20a083111561484457506000905060036148c8565b6040805160008082526020820180845289905260ff881692820192909252606081018690526080810185905260019060a0016020604051602081039080840390855afa158015614898573d6000803e3d6000fd5b5050604051601f1901519150506001600160a01b0381166148c1576000600192509250506148c8565b9150600090505b94509492505050565b60008183106148ed576000828152602084905260409020611171565b5060009182526020526040902090565b6060831561496c578251600003614965576001600160a01b0385163b6149655760405162461bcd60e51b815260206004820152601d60248201527f416464726573733a2063616c6c20746f206e6f6e2d636f6e74726163740000006044820152606401610c97565b50816111c1565b6111c183838151156149815781518083602001fd5b8060405162461bcd60e51b8152600401610c9791906149eb565b60005b838110156149b657818101518382015260200161499e565b50506000910152565b600081518084526149d781602086016020860161499b565b601f01601f19169290920160200192915050565b60208152600061117160208301846149bf565b634e487b7160e01b600052604160045260246000fd5b604051601f8201601f1916810167ffffffffffffffff81118282101715614a3d57614a3d6149fe565b604052919050565b600067ffffffffffffffff821115614a5f57614a5f6149fe565b5060051b60200190565b803560038110614a7857600080fd5b919050565b80356001600160601b0381168114614a7857600080fd5b600082601f830112614aa557600080fd5b81356020614aba614ab583614a45565b614a14565b82815260059290921b84018101918181019086841115614ad957600080fd5b8286015b84811015614afb57614aee81614a7d565b8352918301918301614add565b509695505050505050565b60008060408385031215614b1957600080fd5b823567ffffffffffffffff80821115614b3157600080fd5b818501915085601f830112614b4557600080fd5b81356020614b55614ab583614a45565b82815260059290921b84018101918181019089841115614b7457600080fd5b948201945b83861015614b9957614b8a86614a69565b82529482019490820190614b79565b96505086013592505080821115614baf57600080fd5b50614bbc85828601614a94565b9150509250929050565b6001600160a01b0381168114610ba157600080fd5b600082601f830112614bec57600080fd5b813567ffffffffffffffff811115614c0657614c066149fe565b614c19601f8201601f1916602001614a14565b818152846020838601011115614c2e57600080fd5b816020850160208301376000918101602001919091529392505050565b60008060008060008060c08789031215614c6457600080fd5b8635614c6f81614bc6565b9550614c7d60208801614a7d565b945060408701359350606087013592506080870135915060a087013567ffffffffffffffff811115614cae57600080fd5b614cba89828a01614bdb565b9150509295509295509295565b600060208284031215614cd957600080fd5b813561117181614bc6565b600080600060608486031215614cf957600080fd5b8335614d0481614bc6565b9250614d1260208501614a7d565b9150604084013590509250925092565b8015158114610ba157600080fd5b60008060408385031215614d4357600080fd5b823591506020830135614d5581614d22565b809150509250929050565b600060208284031215614d7257600080fd5b61117182614a69565b60008060408385031215614d8e57600080fd5b8235614d9981614bc6565b91506020830135614d5581614bc6565b60008083601f840112614dbb57600080fd5b50813567ffffffffffffffff811115614dd357600080fd5b6020830191508360208260051b85010111156144c557600080fd5b600080600080600060808688031215614e0657600080fd5b8535614e1181614bc6565b9450614e1f60208701614a7d565b9350604086013567ffffffffffffffff811115614e3b57600080fd5b614e4788828901614da9565b96999598509660600135949350505050565b60008060408385031215614e6c57600080fd5b823591506020830135614d5581614bc6565b60008060408385031215614e9157600080fd5b50508035926020909101359150565b600080600060608486031215614eb557600080fd5b83359250614ec560208501614a7d565b9150614ed360408501614a7d565b90509250925092565b600060208284031215614eee57600080fd5b5035919050565b634e487b7160e01b600052602160045260246000fd5b60038110614f2957634e487b7160e01b600052602160045260246000fd5b9052565b60006101808201905082518252602083015160208301526040830151614f5f604084018267ffffffffffffffff169052565b506060830151614f7b606084018267ffffffffffffffff169052565b506080830151614f97608084018267ffffffffffffffff169052565b5060a0830151614fb360a084018267ffffffffffffffff169052565b5060c0830151614fcf60c084018267ffffffffffffffff169052565b5060e0830151614fea60e08401826001600160601b03169052565b50610100838101516001600160601b0316908301526101208084015161501282850182614f0b565b50506101408381015115159083015261016080840151801515828501525b505092915050565b60208101610db38284614f0b565b803567ffffffffffffffff81168114614a7857600080fd5b6000806000806000806000806000806101408b8d03121561507e57600080fd5b6150878b614a7d565b995061509560208c01614a7d565b985060408b0135975060608b013596506150b160808c01615046565b95506150bf60a08c01615046565b94506150cd60c08c01615046565b93506150db60e08c01615046565b92506150ea6101008c01614a69565b91506101208b01356150fb81614d22565b809150509295989b9194979a5092959850565b6000806040838503121561512157600080fd5b8235915061513160208401615046565b90509250929050565b6000806000806080858703121561515057600080fd5b8435935060208501359250604085013561516981614bc6565b9150606085013567ffffffffffffffff81111561518557600080fd5b61519187828801614bdb565b91505092959194509250565b600082601f8301126151ae57600080fd5b813560206151be614ab583614a45565b82815260059290921b840181019181810190868411156151dd57600080fd5b8286015b84811015614afb57803583529183019183016151e1565b60008060008060008060c0878903121561521157600080fd5b863561521c81614bc6565b955060208781013561522d81614bc6565b9550604088013561523d81614bc6565b9450606088013567ffffffffffffffff8082111561525a57600080fd5b818a0191508a601f83011261526e57600080fd5b813561527c614ab582614a45565b81815260059190911b8301840190848101908d83111561529b57600080fd5b938501935b828510156152c25784356152b381614bc6565b825293850193908501906152a0565b9750505060808a01359250808311156152da57600080fd5b6152e68b848c0161519d565b945060a08a01359250808311156152fc57600080fd5b5050614cba89828a01614a94565b60008060006060848603121561531f57600080fd5b8335925061532f60208501615046565b9150614ed360408501615046565b60008060008060008060008060e0898b03121561535957600080fd5b883561536481614bc6565b975061537260208a01614a7d565b9650604089013567ffffffffffffffff8082111561538f57600080fd5b61539b8c838d01614da9565b909850965060608b0135955060808b0135945060a08b0135935060c08b01359150808211156153c957600080fd5b506153d68b828c01614bdb565b9150509295985092959890939650565b634e487b7160e01b600052603260045260246000fd5b634e487b7160e01b600052601160045260246000fd5b600060018201615424576154246153fc565b5060010190565b80820180821115610db357610db36153fc565b60006020828403121561545057600080fd5b5051919050565b604081016154658285614f0b565b6001600160601b03831660208301529392505050565b8082028115828204841417610db357610db36153fc565b6001600160601b03818116838216028082169190828114615030576150306153fc565b606081016154c38286614f0b565b6001600160601b03841660208301526001600160a01b0383166040830152949350505050565b60008261550657634e487b7160e01b600052601260045260246000fd5b500490565b81810381811115610db357610db36153fc565b67ffffffffffffffff81811683821601908082111561553f5761553f6153fc565b5092915050565b60006020828403121561555857600080fd5b815161117181614d22565b8281526040602082015260006111c160408301846149bf565b6000825161558e81846020870161499b565b919091019291505056fea26469706673582212200d815a5bcf0f217bc359a8ceb4c97baa2288d5273876edcf6684c772e47d30ee64736f6c63430008110033",
  "devdoc": {
    "author": "Mihirsinh Parmar <mihirsinh@chainlabs.in>",
    "details": "Controller owns the NFT contract from where it mints NFTs",
    "kind": "dev",
    "methods": {
      "acceptOwnership()": {
        "details": "The new owner accepts the ownership transfer."
      },
      "addSale(uint96,uint96,uint256,bytes32,uint64,uint64,uint64,uint64,uint8,bool)": {
        "details": "add new sale category",
        "params": {
          "_endTime": "end time of sale",
          "_isDiscountEnabled": "is discount enabled on this sale",
          "_keyCardPerAvatar": "number of Key Card to be given per avatar minted",
          "_merkleRoot": "merkle root of sale",
          "_perTransactionLimit": "allowed NFT limit per transaction",
          "_perWalletLimit": "allowed NFT limit per wallet",
          "_phase": "which phase does this sale category belongs to",
          "_price": "price per NFT of the sale",
          "_startTime": "start time of sale",
          "_supply": "supply of NFTs allowed to be sold in this sale category"
        }
      },
      "editKeyCardRatioOfSaleCategory(uint256,uint64)": {
        "details": "edit key card ratio of sale category",
        "params": {
          "_newKeyCardRatio": "new key card ratio",
          "_saleCategoryId": "sale category id"
        }
      },
      "editMerkleRootOfSaleCategory(uint256,bytes32)": {
        "details": "edit new merkle root of sale category",
        "params": {
          "_newMerkleRoot": "new merkle root of sale category id",
          "_saleCategoryId": "sale category id"
        }
      },
      "editPerLimitOfSaleCategory(uint256,uint64,uint64)": {
        "details": "edit limits for wallet or transaction",
        "params": {
          "_newPerTransactionLimit": "new limit per transaction",
          "_newPerWalletLimit": "new limit per wallet",
          "_saleCategoryId": "sale category id"
        }
      },
      "editPriceOfSaleCategory(uint256,uint256)": {
        "details": "edit new price of sale category",
        "params": {
          "_newPrice": "new price for this sale category",
          "_saleCategoryId": "sale category id"
        }
      },
      "editSaleTimeOfSaleCategory(uint256,uint96,uint96)": {
        "details": "edit new sale time of sale category",
        "params": {
          "_newEndTime": "new end time of sale category",
          "_newStartTime": "new start time of sale category",
          "_saleCategoryId": "sale category id"
        }
      },
      "editSupplyOfSaleCategory(uint256,uint64)": {
        "details": "edit new supply of sale category",
        "params": {
          "_newTokensSupply": "new supply of sale category",
          "_saleCategoryId": "sale category id"
        }
      },
      "getAvatar()": {
        "details": "getter for avatar NFT instance",
        "returns": {
          "_0": "avatar NFT instance"
        }
      },
      "getDiscountSigner()": {
        "details": "get discount signer address",
        "returns": {
          "_0": "discountSigner the address of signer who signs discount codes"
        }
      },
      "getKeyCard()": {
        "details": "getter for key card NFT instance",
        "returns": {
          "_0": "key card NFT instance"
        }
      },
      "getSaleCategory(uint256)": {
        "details": "get sale category",
        "params": {
          "_saleCategoryId": "sale category id"
        },
        "returns": {
          "_0": "returns sale category struct"
        }
      },
      "getSaleCategoryCounter()": {
        "details": "get number of sale categories that have been added",
        "returns": {
          "counter": "number of sale category that have been added"
        }
      },
      "owner()": {
        "details": "Returns the address of the current owner."
      },
      "pause()": {
        "details": "pause public functions"
      },
      "paused()": {
        "details": "Returns true if the contract is paused, and false otherwise."
      },
      "payee(uint256)": {
        "details": "Getter for the address of the payee number `index`."
      },
      "pendingOwner()": {
        "details": "Returns the address of the pending owner."
      },
      "releasable(address)": {
        "details": "Getter for the amount of payee's releasable Ether."
      },
      "releasable(address,address)": {
        "details": "Getter for the amount of payee's releasable `token` tokens. `token` should be the address of an IERC20 contract."
      },
      "release(address)": {
        "details": "Triggers a transfer to `account` of the amount of Ether they are owed, according to their percentage of the total shares and their previous withdrawals."
      },
      "release(address,address)": {
        "details": "Triggers a transfer to `account` of the amount of `token` tokens they are owed, according to their percentage of the total shares and their previous withdrawals. `token` must be the address of an IERC20 contract."
      },
      "released(address)": {
        "details": "Getter for the amount of Ether already released to a payee."
      },
      "released(address,address)": {
        "details": "Getter for the amount of `token` tokens already released to a payee. `token` should be the address of an IERC20 contract."
      },
      "renounceOwnership()": {
        "details": "Leaves the contract without owner. It will not be possible to call `onlyOwner` functions anymore. Can only be called by the current owner. NOTE: Renouncing ownership will leave the contract without an owner, thereby removing any functionality that is only available to the owner."
      },
      "setDiscountSigner(address)": {
        "details": "set new discount signer",
        "params": {
          "_newDiscountSigner": "new discount signer"
        }
      },
      "shares(address)": {
        "details": "Getter for the amount of shares held by an account."
      },
      "toggleDiscountOfSaleCategory(uint256,bool)": {
        "details": "toggle discount for a sale category",
        "params": {
          "_isDiscounted": "is discount to be enabled",
          "_saleCategoryId": "sale category id"
        }
      },
      "totalReleased()": {
        "details": "Getter for the total amount of Ether already released."
      },
      "totalReleased(address)": {
        "details": "Getter for the total amount of `token` already released. `token` should be the address of an IERC20 contract."
      },
      "totalShares()": {
        "details": "Getter for the total shares held by payees."
      },
      "transferOwnership(address)": {
        "details": "Starts the ownership transfer of the contract to a new account. Replaces the pending transfer if there is one. Can only be called by the current owner."
      },
      "unpause()": {
        "details": "unpause public functions"
      }
    },
    "title": "Controller",
    "version": 1
  },
  "userdoc": {
    "events": {
      "AddedSaleCategory(uint256,uint8)": {
        "notice": "logs when new sale category is added"
      },
      "AvatarUpdated(address,address)": {
        "notice": "logs when new avatar is updated"
      },
      "DiscountCodeApplied(uint256)": {
        "notice": "logs when discount code index is applied"
      },
      "DiscountDisabledOnSaleCategory(uint256)": {
        "notice": "logs when discount is disabled for sale category"
      },
      "DiscountEnabledOnSaleCategory(uint256)": {
        "notice": "logs when discount is enabled for sale category"
      },
      "DiscountSignerUpdated(address)": {
        "notice": "logs when discount signer is updated"
      },
      "KeyCardRatioUpdatedForSaleCategory(uint256,uint64)": {
        "notice": "logs when key card : avatar NFT ratio is updated for a sale category"
      },
      "MemberKeyCardUpdated(address,address)": {
        "notice": "logs when new member key card is updated"
      },
      "MerkleRootUpdatedSaleCategory(uint256,bytes32)": {
        "notice": "logs when merkle root is updated for sale category"
      },
      "PerLimitUpdatedOfSaleCategory(uint256,uint64,uint64)": {
        "notice": "logs when limit per wallet and transaction is updated for sale category"
      },
      "PriceUpdatedForSaleCategory(uint256,uint256)": {
        "notice": "logs when new price is set for sale category"
      },
      "SupplyUpdatedForSaleCategory(uint256,uint64)": {
        "notice": "logs when supply of sale category is updated"
      },
      "TimeUpdatedForSaleCategory(uint256,uint96,uint96)": {
        "notice": "logs when start time and end time is updated for a sale category"
      }
    },
    "kind": "user",
    "methods": {
      "addSale(uint96,uint96,uint256,bytes32,uint64,uint64,uint64,uint64,uint8,bool)": {
        "notice": "add new sale category"
      },
      "editKeyCardRatioOfSaleCategory(uint256,uint64)": {
        "notice": "edit key card ratio of sale category"
      },
      "editMerkleRootOfSaleCategory(uint256,bytes32)": {
        "notice": "edit new merkle root of sale category"
      },
      "editPerLimitOfSaleCategory(uint256,uint64,uint64)": {
        "notice": "edit limits of sale category"
      },
      "editPriceOfSaleCategory(uint256,uint256)": {
        "notice": "edit new price of sale category"
      },
      "editSaleTimeOfSaleCategory(uint256,uint96,uint96)": {
        "notice": "edit new sale time of sale category"
      },
      "editSupplyOfSaleCategory(uint256,uint64)": {
        "notice": "edit new supply of sale category"
      },
      "getAvatar()": {
        "notice": "get avatar NFT contract instance"
      },
      "getDiscountSigner()": {
        "notice": "get discount signer address"
      },
      "getKeyCard()": {
        "notice": "get key card NFT contract instance"
      },
      "getSaleCategory(uint256)": {
        "notice": "get sale category"
      },
      "getSaleCategoryCounter()": {
        "notice": "get number of sale categories that have been added"
      },
      "pause()": {
        "notice": "pause public functions"
      },
      "setDiscountSigner(address)": {
        "notice": "set new discount signer"
      },
      "toggleDiscountOfSaleCategory(uint256,bool)": {
        "notice": "toggle discount for a sale category"
      },
      "unpause()": {
        "notice": "unpause public functions"
      }
    },
    "notice": "This contract handles logic of the various NFT sales.",
    "version": 1
  },
  "storageLayout": {
    "storage": [
      {
        "astId": 1153,
        "contract": "contracts/Controller/Controller.sol:Controller",
        "label": "_initialized",
        "offset": 0,
        "slot": "0",
        "type": "t_uint8"
      },
      {
        "astId": 1156,
        "contract": "contracts/Controller/Controller.sol:Controller",
        "label": "_initializing",
        "offset": 1,
        "slot": "0",
        "type": "t_bool"
      },
      {
        "astId": 2235,
        "contract": "contracts/Controller/Controller.sol:Controller",
        "label": "__gap",
        "offset": 0,
        "slot": "1",
        "type": "t_array(t_uint256)50_storage"
      },
      {
        "astId": 1336,
        "contract": "contracts/Controller/Controller.sol:Controller",
        "label": "_paused",
        "offset": 0,
        "slot": "51",
        "type": "t_bool"
      },
      {
        "astId": 1441,
        "contract": "contracts/Controller/Controller.sol:Controller",
        "label": "__gap",
        "offset": 0,
        "slot": "52",
        "type": "t_array(t_uint256)49_storage"
      },
      {
        "astId": 525,
        "contract": "contracts/Controller/Controller.sol:Controller",
        "label": "_owner",
        "offset": 0,
        "slot": "101",
        "type": "t_address"
      },
      {
        "astId": 645,
        "contract": "contracts/Controller/Controller.sol:Controller",
        "label": "__gap",
        "offset": 0,
        "slot": "102",
        "type": "t_array(t_uint256)49_storage"
      },
      {
        "astId": 434,
        "contract": "contracts/Controller/Controller.sol:Controller",
        "label": "_pendingOwner",
        "offset": 0,
        "slot": "151",
        "type": "t_address"
      },
      {
        "astId": 513,
        "contract": "contracts/Controller/Controller.sol:Controller",
        "label": "__gap",
        "offset": 0,
        "slot": "152",
        "type": "t_array(t_uint256)49_storage"
      },
      {
        "astId": 1456,
        "contract": "contracts/Controller/Controller.sol:Controller",
        "label": "_status",
        "offset": 0,
        "slot": "201",
        "type": "t_uint256"
      },
      {
        "astId": 1514,
        "contract": "contracts/Controller/Controller.sol:Controller",
        "label": "__gap",
        "offset": 0,
        "slot": "202",
        "type": "t_array(t_uint256)49_storage"
      },
      {
        "astId": 686,
        "contract": "contracts/Controller/Controller.sol:Controller",
        "label": "_totalShares",
        "offset": 0,
        "slot": "251",
        "type": "t_uint256"
      },
      {
        "astId": 688,
        "contract": "contracts/Controller/Controller.sol:Controller",
        "label": "_totalReleased",
        "offset": 0,
        "slot": "252",
        "type": "t_uint256"
      },
      {
        "astId": 692,
        "contract": "contracts/Controller/Controller.sol:Controller",
        "label": "_shares",
        "offset": 0,
        "slot": "253",
        "type": "t_mapping(t_address,t_uint256)"
      },
      {
        "astId": 696,
        "contract": "contracts/Controller/Controller.sol:Controller",
        "label": "_released",
        "offset": 0,
        "slot": "254",
        "type": "t_mapping(t_address,t_uint256)"
      },
      {
        "astId": 699,
        "contract": "contracts/Controller/Controller.sol:Controller",
        "label": "_payees",
        "offset": 0,
        "slot": "255",
        "type": "t_array(t_address)dyn_storage"
      },
      {
        "astId": 704,
        "contract": "contracts/Controller/Controller.sol:Controller",
        "label": "_erc20TotalReleased",
        "offset": 0,
        "slot": "256",
        "type": "t_mapping(t_contract(IERC20Upgradeable)1593,t_uint256)"
      },
      {
        "astId": 711,
        "contract": "contracts/Controller/Controller.sol:Controller",
        "label": "_erc20Released",
        "offset": 0,
        "slot": "257",
        "type": "t_mapping(t_contract(IERC20Upgradeable)1593,t_mapping(t_address,t_uint256))"
      },
      {
        "astId": 1145,
        "contract": "contracts/Controller/Controller.sol:Controller",
        "label": "__gap",
        "offset": 0,
        "slot": "258",
        "type": "t_array(t_uint256)43_storage"
      },
      {
        "astId": 8169,
        "contract": "contracts/Controller/Controller.sol:Controller",
        "label": "_currentPhase",
        "offset": 0,
        "slot": "301",
        "type": "t_enum(PHASE_ID)8220"
      },
      {
        "astId": 8172,
        "contract": "contracts/Controller/Controller.sol:Controller",
        "label": "_avatar",
        "offset": 1,
        "slot": "301",
        "type": "t_address"
      },
      {
        "astId": 8175,
        "contract": "contracts/Controller/Controller.sol:Controller",
        "label": "_keyCard",
        "offset": 0,
        "slot": "302",
        "type": "t_address"
      },
      {
        "astId": 8178,
        "contract": "contracts/Controller/Controller.sol:Controller",
        "label": "_discountSigner",
        "offset": 0,
        "slot": "303",
        "type": "t_address"
      },
      {
        "astId": 8184,
        "contract": "contracts/Controller/Controller.sol:Controller",
        "label": "_saleCategories",
        "offset": 0,
        "slot": "304",
        "type": "t_mapping(t_uint256,t_struct(SaleCategory)8246_storage)"
      },
      {
        "astId": 8190,
        "contract": "contracts/Controller/Controller.sol:Controller",
        "label": "_tokensMintedByUser",
        "offset": 0,
        "slot": "305",
        "type": "t_mapping(t_uint256,t_mapping(t_address,t_uint256))"
      },
      {
        "astId": 8195,
        "contract": "contracts/Controller/Controller.sol:Controller",
        "label": "_appliedDiscountIndex",
        "offset": 0,
        "slot": "306",
        "type": "t_mapping(t_uint256,t_bool)"
      },
      {
        "astId": 8200,
        "contract": "contracts/Controller/Controller.sol:Controller",
        "label": "_tokensToReserve",
        "offset": 0,
        "slot": "307",
        "type": "t_mapping(t_enum(PHASE_ID)8220,t_uint96)"
      },
      {
        "astId": 8205,
        "contract": "contracts/Controller/Controller.sol:Controller",
        "label": "_reservedForPhase",
        "offset": 0,
        "slot": "308",
        "type": "t_mapping(t_enum(PHASE_ID)8220,t_bool)"
      },
      {
        "astId": 8209,
        "contract": "contracts/Controller/Controller.sol:Controller",
        "label": "_saleCounter",
        "offset": 0,
        "slot": "309",
        "type": "t_struct(Counter)3682_storage"
      },
      {
        "astId": 8213,
        "contract": "contracts/Controller/Controller.sol:Controller",
        "label": "__gap",
        "offset": 0,
        "slot": "310",
        "type": "t_array(t_uint256)50_storage"
      }
    ],
    "types": {
      "t_address": {
        "encoding": "inplace",
        "label": "address",
        "numberOfBytes": "20"
      },
      "t_array(t_address)dyn_storage": {
        "base": "t_address",
        "encoding": "dynamic_array",
        "label": "address[]",
        "numberOfBytes": "32"
      },
      "t_array(t_uint256)43_storage": {
        "base": "t_uint256",
        "encoding": "inplace",
        "label": "uint256[43]",
        "numberOfBytes": "1376"
      },
      "t_array(t_uint256)49_storage": {
        "base": "t_uint256",
        "encoding": "inplace",
        "label": "uint256[49]",
        "numberOfBytes": "1568"
      },
      "t_array(t_uint256)50_storage": {
        "base": "t_uint256",
        "encoding": "inplace",
        "label": "uint256[50]",
        "numberOfBytes": "1600"
      },
      "t_bool": {
        "encoding": "inplace",
        "label": "bool",
        "numberOfBytes": "1"
      },
      "t_bytes32": {
        "encoding": "inplace",
        "label": "bytes32",
        "numberOfBytes": "32"
      },
      "t_contract(IERC20Upgradeable)1593": {
        "encoding": "inplace",
        "label": "contract IERC20Upgradeable",
        "numberOfBytes": "20"
      },
      "t_enum(PHASE_ID)8220": {
        "encoding": "inplace",
        "label": "enum IController.PHASE_ID",
        "numberOfBytes": "1"
      },
      "t_mapping(t_address,t_uint256)": {
        "encoding": "mapping",
        "key": "t_address",
        "label": "mapping(address => uint256)",
        "numberOfBytes": "32",
        "value": "t_uint256"
      },
      "t_mapping(t_contract(IERC20Upgradeable)1593,t_mapping(t_address,t_uint256))": {
        "encoding": "mapping",
        "key": "t_contract(IERC20Upgradeable)1593",
        "label": "mapping(contract IERC20Upgradeable => mapping(address => uint256))",
        "numberOfBytes": "32",
        "value": "t_mapping(t_address,t_uint256)"
      },
      "t_mapping(t_contract(IERC20Upgradeable)1593,t_uint256)": {
        "encoding": "mapping",
        "key": "t_contract(IERC20Upgradeable)1593",
        "label": "mapping(contract IERC20Upgradeable => uint256)",
        "numberOfBytes": "32",
        "value": "t_uint256"
      },
      "t_mapping(t_enum(PHASE_ID)8220,t_bool)": {
        "encoding": "mapping",
        "key": "t_enum(PHASE_ID)8220",
        "label": "mapping(enum IController.PHASE_ID => bool)",
        "numberOfBytes": "32",
        "value": "t_bool"
      },
      "t_mapping(t_enum(PHASE_ID)8220,t_uint96)": {
        "encoding": "mapping",
        "key": "t_enum(PHASE_ID)8220",
        "label": "mapping(enum IController.PHASE_ID => uint96)",
        "numberOfBytes": "32",
        "value": "t_uint96"
      },
      "t_mapping(t_uint256,t_bool)": {
        "encoding": "mapping",
        "key": "t_uint256",
        "label": "mapping(uint256 => bool)",
        "numberOfBytes": "32",
        "value": "t_bool"
      },
      "t_mapping(t_uint256,t_mapping(t_address,t_uint256))": {
        "encoding": "mapping",
        "key": "t_uint256",
        "label": "mapping(uint256 => mapping(address => uint256))",
        "numberOfBytes": "32",
        "value": "t_mapping(t_address,t_uint256)"
      },
      "t_mapping(t_uint256,t_struct(SaleCategory)8246_storage)": {
        "encoding": "mapping",
        "key": "t_uint256",
        "label": "mapping(uint256 => struct IController.SaleCategory)",
        "numberOfBytes": "32",
        "value": "t_struct(SaleCategory)8246_storage"
      },
      "t_struct(Counter)3682_storage": {
        "encoding": "inplace",
        "label": "struct Counters.Counter",
        "members": [
          {
            "astId": 3681,
            "contract": "contracts/Controller/Controller.sol:Controller",
            "label": "_value",
            "offset": 0,
            "slot": "0",
            "type": "t_uint256"
          }
        ],
        "numberOfBytes": "32"
      },
      "t_struct(SaleCategory)8246_storage": {
        "encoding": "inplace",
        "label": "struct IController.SaleCategory",
        "members": [
          {
            "astId": 8222,
            "contract": "contracts/Controller/Controller.sol:Controller",
            "label": "price",
            "offset": 0,
            "slot": "0",
            "type": "t_uint256"
          },
          {
            "astId": 8224,
            "contract": "contracts/Controller/Controller.sol:Controller",
            "label": "merkleRoot",
            "offset": 0,
            "slot": "1",
            "type": "t_bytes32"
          },
          {
            "astId": 8226,
            "contract": "contracts/Controller/Controller.sol:Controller",
            "label": "perWalletLimit",
            "offset": 0,
            "slot": "2",
            "type": "t_uint64"
          },
          {
            "astId": 8228,
            "contract": "contracts/Controller/Controller.sol:Controller",
            "label": "perTransactionLimit",
            "offset": 8,
            "slot": "2",
            "type": "t_uint64"
          },
          {
            "astId": 8230,
            "contract": "contracts/Controller/Controller.sol:Controller",
            "label": "supply",
            "offset": 16,
            "slot": "2",
            "type": "t_uint64"
          },
          {
            "astId": 8232,
            "contract": "contracts/Controller/Controller.sol:Controller",
            "label": "tokensMinted",
            "offset": 24,
            "slot": "2",
            "type": "t_uint64"
          },
          {
            "astId": 8234,
            "contract": "contracts/Controller/Controller.sol:Controller",
            "label": "keyCardPerAvatar",
            "offset": 0,
            "slot": "3",
            "type": "t_uint64"
          },
          {
            "astId": 8236,
            "contract": "contracts/Controller/Controller.sol:Controller",
            "label": "startTime",
            "offset": 8,
            "slot": "3",
            "type": "t_uint96"
          },
          {
            "astId": 8238,
            "contract": "contracts/Controller/Controller.sol:Controller",
            "label": "endTime",
            "offset": 20,
            "slot": "3",
            "type": "t_uint96"
          },
          {
            "astId": 8241,
            "contract": "contracts/Controller/Controller.sol:Controller",
            "label": "phase",
            "offset": 0,
            "slot": "4",
            "type": "t_enum(PHASE_ID)8220"
          },
          {
            "astId": 8243,
            "contract": "contracts/Controller/Controller.sol:Controller",
            "label": "paused",
            "offset": 1,
            "slot": "4",
            "type": "t_bool"
          },
          {
            "astId": 8245,
            "contract": "contracts/Controller/Controller.sol:Controller",
            "label": "isDiscountEnabled",
            "offset": 2,
            "slot": "4",
            "type": "t_bool"
          }
        ],
        "numberOfBytes": "160"
      },
      "t_uint256": {
        "encoding": "inplace",
        "label": "uint256",
        "numberOfBytes": "32"
      },
      "t_uint64": {
        "encoding": "inplace",
        "label": "uint64",
        "numberOfBytes": "8"
      },
      "t_uint8": {
        "encoding": "inplace",
        "label": "uint8",
        "numberOfBytes": "1"
      },
      "t_uint96": {
        "encoding": "inplace",
        "label": "uint96",
        "numberOfBytes": "12"
      }
    }
  }
}