{
  "address": "0x8051cEF6AeFCefd3E87B73C2761C969D50B9ed94",
  "abi": [
    {
      "inputs": [],
      "name": "ApprovalCallerNotOwnerNorApproved",
      "type": "error"
    },
    {
      "inputs": [],
      "name": "ApprovalQueryForNonexistentToken",
      "type": "error"
    },
    {
      "inputs": [],
      "name": "BalanceQueryForZeroAddress",
      "type": "error"
    },
    {
      "inputs": [],
      "name": "MintERC2309QuantityExceedsLimit",
      "type": "error"
    },
    {
      "inputs": [],
      "name": "MintToZeroAddress",
      "type": "error"
    },
    {
      "inputs": [],
      "name": "MintZeroQuantity",
      "type": "error"
    },
    {
      "inputs": [],
      "name": "OwnerQueryForNonexistentToken",
      "type": "error"
    },
    {
      "inputs": [],
      "name": "OwnershipNotInitializedForExtraData",
      "type": "error"
    },
    {
      "inputs": [],
      "name": "TransferCallerNotOwnerNorApproved",
      "type": "error"
    },
    {
      "inputs": [],
      "name": "TransferFromIncorrectOwner",
      "type": "error"
    },
    {
      "inputs": [],
      "name": "TransferToNonERC721ReceiverImplementer",
      "type": "error"
    },
    {
      "inputs": [],
      "name": "TransferToZeroAddress",
      "type": "error"
    },
    {
      "inputs": [],
      "name": "URIQueryForNonexistentToken",
      "type": "error"
    },
    {
      "anonymous": false,
      "inputs": [
        {
          "indexed": true,
          "internalType": "address",
          "name": "owner",
          "type": "address"
        },
        {
          "indexed": true,
          "internalType": "address",
          "name": "approved",
          "type": "address"
        },
        {
          "indexed": true,
          "internalType": "uint256",
          "name": "tokenId",
          "type": "uint256"
        }
      ],
      "name": "Approval",
      "type": "event"
    },
    {
      "anonymous": false,
      "inputs": [
        {
          "indexed": true,
          "internalType": "address",
          "name": "owner",
          "type": "address"
        },
        {
          "indexed": true,
          "internalType": "address",
          "name": "operator",
          "type": "address"
        },
        {
          "indexed": false,
          "internalType": "bool",
          "name": "approved",
          "type": "bool"
        }
      ],
      "name": "ApprovalForAll",
      "type": "event"
    },
    {
      "anonymous": false,
      "inputs": [
        {
          "indexed": true,
          "internalType": "uint256",
          "name": "fromTokenId",
          "type": "uint256"
        },
        {
          "indexed": false,
          "internalType": "uint256",
          "name": "toTokenId",
          "type": "uint256"
        },
        {
          "indexed": true,
          "internalType": "address",
          "name": "from",
          "type": "address"
        },
        {
          "indexed": true,
          "internalType": "address",
          "name": "to",
          "type": "address"
        }
      ],
      "name": "ConsecutiveTransfer",
      "type": "event"
    },
    {
      "anonymous": false,
      "inputs": [
        {
          "indexed": false,
          "internalType": "uint8",
          "name": "version",
          "type": "uint8"
        }
      ],
      "name": "Initialized",
      "type": "event"
    },
    {
      "anonymous": false,
      "inputs": [
        {
          "indexed": true,
          "internalType": "address",
          "name": "previousOwner",
          "type": "address"
        },
        {
          "indexed": true,
          "internalType": "address",
          "name": "newOwner",
          "type": "address"
        }
      ],
      "name": "OwnershipTransferred",
      "type": "event"
    },
    {
      "anonymous": false,
      "inputs": [
        {
          "indexed": true,
          "internalType": "bytes32",
          "name": "role",
          "type": "bytes32"
        },
        {
          "indexed": true,
          "internalType": "bytes32",
          "name": "previousAdminRole",
          "type": "bytes32"
        },
        {
          "indexed": true,
          "internalType": "bytes32",
          "name": "newAdminRole",
          "type": "bytes32"
        }
      ],
      "name": "RoleAdminChanged",
      "type": "event"
    },
    {
      "anonymous": false,
      "inputs": [
        {
          "indexed": true,
          "internalType": "bytes32",
          "name": "role",
          "type": "bytes32"
        },
        {
          "indexed": true,
          "internalType": "address",
          "name": "account",
          "type": "address"
        },
        {
          "indexed": true,
          "internalType": "address",
          "name": "sender",
          "type": "address"
        }
      ],
      "name": "RoleGranted",
      "type": "event"
    },
    {
      "anonymous": false,
      "inputs": [
        {
          "indexed": true,
          "internalType": "bytes32",
          "name": "role",
          "type": "bytes32"
        },
        {
          "indexed": true,
          "internalType": "address",
          "name": "account",
          "type": "address"
        },
        {
          "indexed": true,
          "internalType": "address",
          "name": "sender",
          "type": "address"
        }
      ],
      "name": "RoleRevoked",
      "type": "event"
    },
    {
      "anonymous": false,
      "inputs": [
        {
          "indexed": true,
          "internalType": "address",
          "name": "from",
          "type": "address"
        },
        {
          "indexed": true,
          "internalType": "address",
          "name": "to",
          "type": "address"
        },
        {
          "indexed": true,
          "internalType": "uint256",
          "name": "tokenId",
          "type": "uint256"
        }
      ],
      "name": "Transfer",
      "type": "event"
    },
    {
      "inputs": [],
      "name": "DEFAULT_ADMIN_ROLE",
      "outputs": [
        {
          "internalType": "bytes32",
          "name": "",
          "type": "bytes32"
        }
      ],
      "stateMutability": "view",
      "type": "function"
    },
    {
      "inputs": [],
      "name": "MINTER_ROLE",
      "outputs": [
        {
          "internalType": "bytes32",
          "name": "",
          "type": "bytes32"
        }
      ],
      "stateMutability": "view",
      "type": "function"
    },
    {
      "inputs": [
        {
          "internalType": "address",
          "name": "to",
          "type": "address"
        },
        {
          "internalType": "uint256",
          "name": "tokenId",
          "type": "uint256"
        }
      ],
      "name": "approve",
      "outputs": [],
      "stateMutability": "payable",
      "type": "function"
    },
    {
      "inputs": [
        {
          "internalType": "address",
          "name": "owner",
          "type": "address"
        }
      ],
      "name": "balanceOf",
      "outputs": [
        {
          "internalType": "uint256",
          "name": "",
          "type": "uint256"
        }
      ],
      "stateMutability": "view",
      "type": "function"
    },
    {
      "inputs": [
        {
          "internalType": "uint256",
          "name": "tokenId",
          "type": "uint256"
        }
      ],
      "name": "getApproved",
      "outputs": [
        {
          "internalType": "address",
          "name": "",
          "type": "address"
        }
      ],
      "stateMutability": "view",
      "type": "function"
    },
    {
      "inputs": [
        {
          "internalType": "bytes32",
          "name": "role",
          "type": "bytes32"
        }
      ],
      "name": "getRoleAdmin",
      "outputs": [
        {
          "internalType": "bytes32",
          "name": "",
          "type": "bytes32"
        }
      ],
      "stateMutability": "view",
      "type": "function"
    },
    {
      "inputs": [
        {
          "internalType": "bytes32",
          "name": "role",
          "type": "bytes32"
        },
        {
          "internalType": "address",
          "name": "account",
          "type": "address"
        }
      ],
      "name": "grantRole",
      "outputs": [],
      "stateMutability": "nonpayable",
      "type": "function"
    },
    {
      "inputs": [
        {
          "internalType": "bytes32",
          "name": "role",
          "type": "bytes32"
        },
        {
          "internalType": "address",
          "name": "account",
          "type": "address"
        }
      ],
      "name": "hasRole",
      "outputs": [
        {
          "internalType": "bool",
          "name": "",
          "type": "bool"
        }
      ],
      "stateMutability": "view",
      "type": "function"
    },
    {
      "inputs": [
        {
          "internalType": "string",
          "name": "_name",
          "type": "string"
        },
        {
          "internalType": "string",
          "name": "_symbol",
          "type": "string"
        },
        {
          "internalType": "address",
          "name": "_admin",
          "type": "address"
        },
        {
          "internalType": "address",
          "name": "_minter",
          "type": "address"
        }
      ],
      "name": "initialize",
      "outputs": [],
      "stateMutability": "nonpayable",
      "type": "function"
    },
    {
      "inputs": [
        {
          "internalType": "address",
          "name": "owner",
          "type": "address"
        },
        {
          "internalType": "address",
          "name": "operator",
          "type": "address"
        }
      ],
      "name": "isApprovedForAll",
      "outputs": [
        {
          "internalType": "bool",
          "name": "",
          "type": "bool"
        }
      ],
      "stateMutability": "view",
      "type": "function"
    },
    {
      "inputs": [
        {
          "internalType": "address",
          "name": "_receiver",
          "type": "address"
        },
        {
          "internalType": "uint256",
          "name": "_quantity",
          "type": "uint256"
        }
      ],
      "name": "mint",
      "outputs": [],
      "stateMutability": "nonpayable",
      "type": "function"
    },
    {
      "inputs": [],
      "name": "name",
      "outputs": [
        {
          "internalType": "string",
          "name": "",
          "type": "string"
        }
      ],
      "stateMutability": "view",
      "type": "function"
    },
    {
      "inputs": [],
      "name": "owner",
      "outputs": [
        {
          "internalType": "address",
          "name": "",
          "type": "address"
        }
      ],
      "stateMutability": "view",
      "type": "function"
    },
    {
      "inputs": [
        {
          "internalType": "uint256",
          "name": "tokenId",
          "type": "uint256"
        }
      ],
      "name": "ownerOf",
      "outputs": [
        {
          "internalType": "address",
          "name": "",
          "type": "address"
        }
      ],
      "stateMutability": "view",
      "type": "function"
    },
    {
      "inputs": [],
      "name": "renounceOwnership",
      "outputs": [],
      "stateMutability": "nonpayable",
      "type": "function"
    },
    {
      "inputs": [
        {
          "internalType": "bytes32",
          "name": "role",
          "type": "bytes32"
        },
        {
          "internalType": "address",
          "name": "account",
          "type": "address"
        }
      ],
      "name": "renounceRole",
      "outputs": [],
      "stateMutability": "nonpayable",
      "type": "function"
    },
    {
      "inputs": [
        {
          "internalType": "bytes32",
          "name": "role",
          "type": "bytes32"
        },
        {
          "internalType": "address",
          "name": "account",
          "type": "address"
        }
      ],
      "name": "revokeRole",
      "outputs": [],
      "stateMutability": "nonpayable",
      "type": "function"
    },
    {
      "inputs": [
        {
          "internalType": "address",
          "name": "from",
          "type": "address"
        },
        {
          "internalType": "address",
          "name": "to",
          "type": "address"
        },
        {
          "internalType": "uint256",
          "name": "tokenId",
          "type": "uint256"
        }
      ],
      "name": "safeTransferFrom",
      "outputs": [],
      "stateMutability": "payable",
      "type": "function"
    },
    {
      "inputs": [
        {
          "internalType": "address",
          "name": "from",
          "type": "address"
        },
        {
          "internalType": "address",
          "name": "to",
          "type": "address"
        },
        {
          "internalType": "uint256",
          "name": "tokenId",
          "type": "uint256"
        },
        {
          "internalType": "bytes",
          "name": "_data",
          "type": "bytes"
        }
      ],
      "name": "safeTransferFrom",
      "outputs": [],
      "stateMutability": "payable",
      "type": "function"
    },
    {
      "inputs": [
        {
          "internalType": "address",
          "name": "operator",
          "type": "address"
        },
        {
          "internalType": "bool",
          "name": "approved",
          "type": "bool"
        }
      ],
      "name": "setApprovalForAll",
      "outputs": [],
      "stateMutability": "nonpayable",
      "type": "function"
    },
    {
      "inputs": [
        {
          "internalType": "bytes4",
          "name": "interfaceId",
          "type": "bytes4"
        }
      ],
      "name": "supportsInterface",
      "outputs": [
        {
          "internalType": "bool",
          "name": "",
          "type": "bool"
        }
      ],
      "stateMutability": "view",
      "type": "function"
    },
    {
      "inputs": [],
      "name": "symbol",
      "outputs": [
        {
          "internalType": "string",
          "name": "",
          "type": "string"
        }
      ],
      "stateMutability": "view",
      "type": "function"
    },
    {
      "inputs": [
        {
          "internalType": "uint256",
          "name": "tokenId",
          "type": "uint256"
        }
      ],
      "name": "tokenURI",
      "outputs": [
        {
          "internalType": "string",
          "name": "",
          "type": "string"
        }
      ],
      "stateMutability": "view",
      "type": "function"
    },
    {
      "inputs": [],
      "name": "totalSupply",
      "outputs": [
        {
          "internalType": "uint256",
          "name": "",
          "type": "uint256"
        }
      ],
      "stateMutability": "view",
      "type": "function"
    },
    {
      "inputs": [
        {
          "internalType": "address",
          "name": "from",
          "type": "address"
        },
        {
          "internalType": "address",
          "name": "to",
          "type": "address"
        },
        {
          "internalType": "uint256",
          "name": "tokenId",
          "type": "uint256"
        }
      ],
      "name": "transferFrom",
      "outputs": [],
      "stateMutability": "payable",
      "type": "function"
    },
    {
      "inputs": [
        {
          "internalType": "address",
          "name": "newOwner",
          "type": "address"
        }
      ],
      "name": "transferOwnership",
      "outputs": [],
      "stateMutability": "nonpayable",
      "type": "function"
    }
  ],
  "numDeployments": 6,
  "solcInputHash": "1072e68a47de021bf8777a9276fb550e",
  "bytecode": "0x608060405234801561001057600080fd5b5061246a806100206000396000f3fe6080604052600436106101a15760003560e01c8063715018a6116100e1578063a22cb4651161008a578063d539139311610064578063d5391393146104a5578063d547741f146104d9578063e985e9c5146104f9578063f2fde38b1461056157600080fd5b8063a22cb46514610452578063b88d4fde14610472578063c87b56dd1461048557600080fd5b806391d14854116100bb57806391d14854146103e257806395d89b4114610428578063a217fddf1461043d57600080fd5b8063715018a61461038f5780638da5cb5b146103a45780638f15b414146103c257600080fd5b8063248a9ca31161014e57806340c10f191161012857806340c10f191461031c57806342842e0e1461033c5780636352211e1461034f57806370a082311461036f57600080fd5b8063248a9ca3146102ac5780632f2ff15d146102dc57806336568abe146102fc57600080fd5b8063095ea7b31161017f578063095ea7b31461023557806318160ddd1461024a57806323b872dd1461029957600080fd5b806301ffc9a7146101a657806306fdde03146101db578063081812fc146101fd575b600080fd5b3480156101b257600080fd5b506101c66101c1366004611df4565b610581565b60405190151581526020015b60405180910390f35b3480156101e757600080fd5b506101f0610592565b6040516101d29190611e61565b34801561020957600080fd5b5061021d610218366004611e74565b610634565b6040516001600160a01b0390911681526020016101d2565b610248610243366004611ea4565b6106b0565b005b34801561025657600080fd5b507f2569078dfb4b0305704d3008e7403993ae9601b85f7ae5e742de3de8f8011c415460008051602061241583398151915254035b6040519081526020016101d2565b6102486102a7366004611ece565b6106c0565b3480156102b857600080fd5b5061028b6102c7366004611e74565b60009081526097602052604090206001015490565b3480156102e857600080fd5b506102486102f7366004611f0a565b610989565b34801561030857600080fd5b50610248610317366004611f0a565b6109b3565b34801561032857600080fd5b50610248610337366004611ea4565b610a40565b61024861034a366004611ece565b610a74565b34801561035b57600080fd5b5061021d61036a366004611e74565b610a8f565b34801561037b57600080fd5b5061028b61038a366004611f36565b610aa0565b34801561039b57600080fd5b50610248610b27565b3480156103b057600080fd5b506033546001600160a01b031661021d565b3480156103ce57600080fd5b506102486103dd366004611ffd565b610b3b565b3480156103ee57600080fd5b506101c66103fd366004611f0a565b60009182526097602090815260408084206001600160a01b0393909316845291905290205460ff1690565b34801561043457600080fd5b506101f0610e07565b34801561044957600080fd5b5061028b600081565b34801561045e57600080fd5b5061024861046d366004612082565b610e26565b6102486104803660046120be565b610eb1565b34801561049157600080fd5b506101f06104a0366004611e74565b610efb565b3480156104b157600080fd5b5061028b7f9f2df0fed2c77648de5860a4cc508cd0818c85b8b8a1ab4ceeef8d981c8956a681565b3480156104e557600080fd5b506102486104f4366004611f0a565b610fa5565b34801561050557600080fd5b506101c661051436600461213a565b6001600160a01b0391821660009081527f2569078dfb4b0305704d3008e7403993ae9601b85f7ae5e742de3de8f8011c476020908152604080832093909416825291909152205460ff1690565b34801561056d57600080fd5b5061024861057c366004611f36565b610fca565b600061058c8261105a565b50919050565b606060008051602061241583398151915260020180546105b190612164565b80601f01602080910402602001604051908101604052809291908181526020018280546105dd90612164565b801561062a5780601f106105ff5761010080835404028352916020019161062a565b820191906000526020600020905b81548152906001019060200180831161060d57829003601f168201915b5050505050905090565b600061063f826110f3565b610675576040517fcf4700e400000000000000000000000000000000000000000000000000000000815260040160405180910390fd5b5060009081527f2569078dfb4b0305704d3008e7403993ae9601b85f7ae5e742de3de8f8011c4660205260409020546001600160a01b031690565b6106bc82826001611147565b5050565b60006106cb8261126f565b9050836001600160a01b0316816001600160a01b031614610718576040517fa114810000000000000000000000000000000000000000000000000000000000815260040160405180910390fd5b60008281527f2569078dfb4b0305704d3008e7403993ae9601b85f7ae5e742de3de8f8011c46602052604090208054338082146001600160a01b038816909114176107d9576001600160a01b03861660009081527f2569078dfb4b0305704d3008e7403993ae9601b85f7ae5e742de3de8f8011c476020908152604080832033845290915290205460ff166107d9576040517f59c896be00000000000000000000000000000000000000000000000000000000815260040160405180910390fd5b6001600160a01b038516610819576040517fea553b3400000000000000000000000000000000000000000000000000000000815260040160405180910390fd5b801561082457600082555b6001600160a01b0386811660009081527f2569078dfb4b0305704d3008e7403993ae9601b85f7ae5e742de3de8f8011c4560205260408082208054600019019055918716808252919020805460010190554260a01b17600160e11b1760008581527f2569078dfb4b0305704d3008e7403993ae9601b85f7ae5e742de3de8f8011c446020526040812091909155600160e11b8416900361093f576001840160008181527f2569078dfb4b0305704d3008e7403993ae9601b85f7ae5e742de3de8f8011c446020526040812054900361093d5760008051602061241583398151915254811461093d5760008181527f2569078dfb4b0305704d3008e7403993ae9601b85f7ae5e742de3de8f8011c44602052604090208490555b505b83856001600160a01b0316876001600160a01b03167fddf252ad1be2c89b69c2b068fc378daa952ba7f163c4a11628f55a4df523b3ef60405160405180910390a45b505050505050565b6000828152609760205260409020600101546109a48161133a565b6109ae8383611344565b505050565b6001600160a01b0381163314610a365760405162461bcd60e51b815260206004820152602f60248201527f416363657373436f6e74726f6c3a2063616e206f6e6c792072656e6f756e636560448201527f20726f6c657320666f722073656c66000000000000000000000000000000000060648201526084015b60405180910390fd5b6106bc82826113e6565b7f9f2df0fed2c77648de5860a4cc508cd0818c85b8b8a1ab4ceeef8d981c8956a6610a6a8161133a565b6109ae8383611469565b6109ae83838360405180602001604052806000815250610eb1565b6000610a9a8261126f565b92915050565b60006001600160a01b038216610ae2576040517f8f4eb60400000000000000000000000000000000000000000000000000000000815260040160405180910390fd5b506001600160a01b031660009081527f2569078dfb4b0305704d3008e7403993ae9601b85f7ae5e742de3de8f8011c45602052604090205467ffffffffffffffff1690565b610b2f611483565b610b3960006114dd565b565b600054610100900460ff1615808015610b5b5750600054600160ff909116105b80610b755750303b158015610b75575060005460ff166001145b610be75760405162461bcd60e51b815260206004820152602e60248201527f496e697469616c697a61626c653a20636f6e747261637420697320616c72656160448201527f647920696e697469616c697a65640000000000000000000000000000000000006064820152608401610a2d565b6000805460ff191660011790558015610c0a576000805461ff0019166101001790555b7fee151c8401928dc223602bb187aff91b9a56c7cae5476ef1b3287b085a16c85f54610100900460ff16610c63577fee151c8401928dc223602bb187aff91b9a56c7cae5476ef1b3287b085a16c85f5460ff1615610c67565b303b155b610cd95760405162461bcd60e51b815260206004820152603760248201527f455243373231415f5f496e697469616c697a61626c653a20636f6e747261637460448201527f20697320616c726561647920696e697469616c697a65640000000000000000006064820152608401610a2d565b7fee151c8401928dc223602bb187aff91b9a56c7cae5476ef1b3287b085a16c85f54610100900460ff16158015610d39577fee151c8401928dc223602bb187aff91b9a56c7cae5476ef1b3287b085a16c85f805461ffff19166101011790555b610d4161153c565b610d496115af565b610d53868661161a565b610d5e600085611344565b610d887f9f2df0fed2c77648de5860a4cc508cd0818c85b8b8a1ab4ceeef8d981c8956a684611344565b8015610db9577fee151c8401928dc223602bb187aff91b9a56c7cae5476ef1b3287b085a16c85f805461ff00191690555b508015610e00576000805461ff0019169055604051600181527f7f26b83ff96e1f2b6a682f133852f6798a09c465da95921460cefb38474024989060200160405180910390a15b5050505050565b606060008051602061241583398151915260030180546105b190612164565b3360008181527f2569078dfb4b0305704d3008e7403993ae9601b85f7ae5e742de3de8f8011c47602090815260408083206001600160a01b03871680855290835292819020805460ff191686151590811790915590519081529192917f17307eab39ab6107e8899845ad3d59bd9653f200f220920489ca2b5937696c31910160405180910390a35050565b610ebc8484846106c0565b6001600160a01b0383163b15610ef557610ed8848484846116c0565b610ef5576040516368d2bf6b60e11b815260040160405180910390fd5b50505050565b6060610f06826110f3565b610f3c576040517fa14c4b5000000000000000000000000000000000000000000000000000000000815260040160405180910390fd5b6000610f5360408051602081019091526000815290565b90508051600003610f735760405180602001604052806000815250610f9e565b80610f7d846117ab565b604051602001610f8e929190612198565b6040516020818303038152906040525b9392505050565b600082815260976020526040902060010154610fc08161133a565b6109ae83836113e6565b610fd2611483565b6001600160a01b03811661104e5760405162461bcd60e51b815260206004820152602660248201527f4f776e61626c653a206e6577206f776e657220697320746865207a65726f206160448201527f64647265737300000000000000000000000000000000000000000000000000006064820152608401610a2d565b611057816114dd565b50565b60007f01ffc9a7000000000000000000000000000000000000000000000000000000006001600160e01b0319831614806110bd57507f80ac58cd000000000000000000000000000000000000000000000000000000006001600160e01b03198316145b80610a9a5750506001600160e01b0319167f5b5e139f000000000000000000000000000000000000000000000000000000001490565b60006000805160206124158339815191525482108015610a9a57505060009081527f2569078dfb4b0305704d3008e7403993ae9601b85f7ae5e742de3de8f8011c446020526040902054600160e01b161590565b600061115283610a8f565b905081156111e657336001600160a01b038216146111e6576001600160a01b03811660009081527f2569078dfb4b0305704d3008e7403993ae9601b85f7ae5e742de3de8f8011c476020908152604080832033845290915290205460ff166111e6576040517fcfb3b94200000000000000000000000000000000000000000000000000000000815260040160405180910390fd5b60008381527f2569078dfb4b0305704d3008e7403993ae9601b85f7ae5e742de3de8f8011c466020526040808220805473ffffffffffffffffffffffffffffffffffffffff19166001600160a01b0388811691821790925591518693918516917f8c5be1e5ebec7d5bd14f71427d1e84f3dd0314c0f7b2291e5b200ac8c7c3b92591a450505050565b60008181527f2569078dfb4b0305704d3008e7403993ae9601b85f7ae5e742de3de8f8011c44602052604081205490600160e01b82169003611321578060000361131c576000805160206124158339815191525482106112e257604051636f96cda160e11b815260040160405180910390fd5b506000190160008181527f2569078dfb4b0305704d3008e7403993ae9601b85f7ae5e742de3de8f8011c44602052604090205480156112e2575b919050565b604051636f96cda160e11b815260040160405180910390fd5b61105781336117ef565b60008281526097602090815260408083206001600160a01b038516845290915290205460ff166106bc5760008281526097602090815260408083206001600160a01b03851684529091529020805460ff191660011790556113a23390565b6001600160a01b0316816001600160a01b0316837f2f8788117e7eff1d82e926ec794901d17c78024a50270940304540a733656f0d60405160405180910390a45050565b60008281526097602090815260408083206001600160a01b038516845290915290205460ff16156106bc5760008281526097602090815260408083206001600160a01b0385168085529252808320805460ff1916905551339285917ff6391f5c32d9c69d2a47ea670b442974b53935d1edc7fd64eb21e047a839171b9190a45050565b6106bc828260405180602001604052806000815250611864565b6033546001600160a01b03163314610b395760405162461bcd60e51b815260206004820181905260248201527f4f776e61626c653a2063616c6c6572206973206e6f7420746865206f776e65726044820152606401610a2d565b603380546001600160a01b0383811673ffffffffffffffffffffffffffffffffffffffff19831681179093556040519116919082907f8be0079c531659141344cd1fd0a4f28419497f9722a3daafe3b4186f6b6457e090600090a35050565b600054610100900460ff166115a75760405162461bcd60e51b815260206004820152602b60248201527f496e697469616c697a61626c653a20636f6e7472616374206973206e6f74206960448201526a6e697469616c697a696e6760a81b6064820152608401610a2d565b610b396118e4565b600054610100900460ff16610b395760405162461bcd60e51b815260206004820152602b60248201527f496e697469616c697a61626c653a20636f6e7472616374206973206e6f74206960448201526a6e697469616c697a696e6760a81b6064820152608401610a2d565b7fee151c8401928dc223602bb187aff91b9a56c7cae5476ef1b3287b085a16c85f54610100900460ff166116b65760405162461bcd60e51b815260206004820152603460248201527f455243373231415f5f496e697469616c697a61626c653a20636f6e747261637460448201527f206973206e6f7420696e697469616c697a696e670000000000000000000000006064820152608401610a2d565b6106bc8282611958565b604051630a85bd0160e11b81526000906001600160a01b0385169063150b7a02906116f59033908990889088906004016121c7565b6020604051808303816000875af1925050508015611730575060408051601f3d908101601f1916820190925261172d91810190612203565b60015b61178e573d80801561175e576040519150601f19603f3d011682016040523d82523d6000602084013e611763565b606091505b508051600003611786576040516368d2bf6b60e11b815260040160405180910390fd5b805181602001fd5b6001600160e01b031916630a85bd0160e11b149050949350505050565b606060a06040510180604052602081039150506000815280825b600183039250600a81066030018353600a9004806117c55750819003601f19909101908152919050565b60008281526097602090815260408083206001600160a01b038516845290915290205460ff166106bc5761182281611a62565b61182d836020611a74565b60405160200161183e929190612220565b60408051601f198184030181529082905262461bcd60e51b8252610a2d91600401611e61565b61186e8383611c55565b6001600160a01b0383163b156109ae57600080516020612415833981519152548281035b6118a560008683806001019450866116c0565b6118c2576040516368d2bf6b60e11b815260040160405180910390fd5b81811061189257816000805160206124158339815191525414610e0057600080fd5b600054610100900460ff1661194f5760405162461bcd60e51b815260206004820152602b60248201527f496e697469616c697a61626c653a20636f6e7472616374206973206e6f74206960448201526a6e697469616c697a696e6760a81b6064820152608401610a2d565b610b39336114dd565b7fee151c8401928dc223602bb187aff91b9a56c7cae5476ef1b3287b085a16c85f54610100900460ff166119f45760405162461bcd60e51b815260206004820152603460248201527f455243373231415f5f496e697469616c697a61626c653a20636f6e747261637460448201527f206973206e6f7420696e697469616c697a696e670000000000000000000000006064820152608401610a2d565b7f2569078dfb4b0305704d3008e7403993ae9601b85f7ae5e742de3de8f8011c42611a1f83826122e7565b507f2569078dfb4b0305704d3008e7403993ae9601b85f7ae5e742de3de8f8011c43611a4b82826122e7565b506000600080516020612415833981519152555050565b6060610a9a6001600160a01b03831660145b60606000611a838360026123bd565b611a8e9060026123d4565b67ffffffffffffffff811115611aa657611aa6611f51565b6040519080825280601f01601f191660200182016040528015611ad0576020820181803683370190505b5090507f300000000000000000000000000000000000000000000000000000000000000081600081518110611b0757611b076123e7565b60200101906001600160f81b031916908160001a9053507f780000000000000000000000000000000000000000000000000000000000000081600181518110611b5257611b526123e7565b60200101906001600160f81b031916908160001a9053506000611b768460026123bd565b611b819060016123d4565b90505b6001811115611c06577f303132333435363738396162636465660000000000000000000000000000000085600f1660108110611bc257611bc26123e7565b1a60f81b828281518110611bd857611bd86123e7565b60200101906001600160f81b031916908160001a90535060049490941c93611bff816123fd565b9050611b84565b508315610f9e5760405162461bcd60e51b815260206004820181905260248201527f537472696e67733a20686578206c656e67746820696e73756666696369656e746044820152606401610a2d565b600080516020612415833981519152546000829003611ca0576040517fb562e8dd00000000000000000000000000000000000000000000000000000000815260040160405180910390fd5b6001600160a01b03831660008181527f2569078dfb4b0305704d3008e7403993ae9601b85f7ae5e742de3de8f8011c456020908152604080832080546801000000000000000188020190558483527f2569078dfb4b0305704d3008e7403993ae9601b85f7ae5e742de3de8f8011c4490915281206001851460e11b4260a01b178317905582840190839083907fddf252ad1be2c89b69c2b068fc378daa952ba7f163c4a11628f55a4df523b3ef8180a4600183015b818114611d8d57808360007fddf252ad1be2c89b69c2b068fc378daa952ba7f163c4a11628f55a4df523b3ef600080a4600101611d55565b5081600003611dc8576040517f2e07630000000000000000000000000000000000000000000000000000000000815260040160405180910390fd5b6000805160206124158339815191525550505050565b6001600160e01b03198116811461105757600080fd5b600060208284031215611e0657600080fd5b8135610f9e81611dde565b60005b83811015611e2c578181015183820152602001611e14565b50506000910152565b60008151808452611e4d816020860160208601611e11565b601f01601f19169290920160200192915050565b602081526000610f9e6020830184611e35565b600060208284031215611e8657600080fd5b5035919050565b80356001600160a01b038116811461131c57600080fd5b60008060408385031215611eb757600080fd5b611ec083611e8d565b946020939093013593505050565b600080600060608486031215611ee357600080fd5b611eec84611e8d565b9250611efa60208501611e8d565b9150604084013590509250925092565b60008060408385031215611f1d57600080fd5b82359150611f2d60208401611e8d565b90509250929050565b600060208284031215611f4857600080fd5b610f9e82611e8d565b634e487b7160e01b600052604160045260246000fd5b600067ffffffffffffffff80841115611f8257611f82611f51565b604051601f8501601f19908116603f01168101908282118183101715611faa57611faa611f51565b81604052809350858152868686011115611fc357600080fd5b858560208301376000602087830101525050509392505050565b600082601f830112611fee57600080fd5b610f9e83833560208501611f67565b6000806000806080858703121561201357600080fd5b843567ffffffffffffffff8082111561202b57600080fd5b61203788838901611fdd565b9550602087013591508082111561204d57600080fd5b5061205a87828801611fdd565b93505061206960408601611e8d565b915061207760608601611e8d565b905092959194509250565b6000806040838503121561209557600080fd5b61209e83611e8d565b9150602083013580151581146120b357600080fd5b809150509250929050565b600080600080608085870312156120d457600080fd5b6120dd85611e8d565b93506120eb60208601611e8d565b925060408501359150606085013567ffffffffffffffff81111561210e57600080fd5b8501601f8101871361211f57600080fd5b61212e87823560208401611f67565b91505092959194509250565b6000806040838503121561214d57600080fd5b61215683611e8d565b9150611f2d60208401611e8d565b600181811c9082168061217857607f821691505b60208210810361058c57634e487b7160e01b600052602260045260246000fd5b600083516121aa818460208801611e11565b8351908301906121be818360208801611e11565b01949350505050565b60006001600160a01b038087168352808616602084015250836040830152608060608301526121f96080830184611e35565b9695505050505050565b60006020828403121561221557600080fd5b8151610f9e81611dde565b7f416363657373436f6e74726f6c3a206163636f756e7420000000000000000000815260008351612258816017850160208801611e11565b7f206973206d697373696e6720726f6c65200000000000000000000000000000006017918401918201528351612295816028840160208801611e11565b01602801949350505050565b601f8211156109ae57600081815260208120601f850160051c810160208610156122c85750805b601f850160051c820191505b81811015610981578281556001016122d4565b815167ffffffffffffffff81111561230157612301611f51565b6123158161230f8454612164565b846122a1565b602080601f83116001811461234a57600084156123325750858301515b600019600386901b1c1916600185901b178555610981565b600085815260208120601f198616915b828110156123795788860151825594840194600190910190840161235a565b50858210156123975787850151600019600388901b60f8161c191681555b5050505050600190811b01905550565b634e487b7160e01b600052601160045260246000fd5b8082028115828204841417610a9a57610a9a6123a7565b80820180821115610a9a57610a9a6123a7565b634e487b7160e01b600052603260045260246000fd5b60008161240c5761240c6123a7565b50600019019056fe2569078dfb4b0305704d3008e7403993ae9601b85f7ae5e742de3de8f8011c40a2646970667358221220a3dd5b2bcb94c0d2c235e125499142bc46e75bcf739c8406dd475750f08eae7f64736f6c63430008110033",
  "devdoc": {
    "kind": "dev",
    "methods": {
      "approve(address,uint256)": {
        "details": "Gives permission to `to` to transfer `tokenId` token to another account. See {ERC721A-_approve}. Requirements: - The caller must own the token or be an approved operator."
      },
      "balanceOf(address)": {
        "details": "Returns the number of tokens in `owner`'s account."
      },
      "getApproved(uint256)": {
        "details": "Returns the account approved for `tokenId` token. Requirements: - `tokenId` must exist."
      },
      "getRoleAdmin(bytes32)": {
        "details": "Returns the admin role that controls `role`. See {grantRole} and {revokeRole}. To change a role's admin, use {_setRoleAdmin}."
      },
      "grantRole(bytes32,address)": {
        "details": "Grants `role` to `account`. If `account` had not been already granted `role`, emits a {RoleGranted} event. Requirements: - the caller must have ``role``'s admin role. May emit a {RoleGranted} event."
      },
      "hasRole(bytes32,address)": {
        "details": "Returns `true` if `account` has been granted `role`."
      },
      "isApprovedForAll(address,address)": {
        "details": "Returns if the `operator` is allowed to manage all of the assets of `owner`. See {setApprovalForAll}."
      },
      "name()": {
        "details": "Returns the token collection name."
      },
      "owner()": {
        "details": "Returns the address of the current owner."
      },
      "ownerOf(uint256)": {
        "details": "Returns the owner of the `tokenId` token. Requirements: - `tokenId` must exist."
      },
      "renounceOwnership()": {
        "details": "Leaves the contract without owner. It will not be possible to call `onlyOwner` functions anymore. Can only be called by the current owner. NOTE: Renouncing ownership will leave the contract without an owner, thereby removing any functionality that is only available to the owner."
      },
      "renounceRole(bytes32,address)": {
        "details": "Revokes `role` from the calling account. Roles are often managed via {grantRole} and {revokeRole}: this function's purpose is to provide a mechanism for accounts to lose their privileges if they are compromised (such as when a trusted device is misplaced). If the calling account had been revoked `role`, emits a {RoleRevoked} event. Requirements: - the caller must be `account`. May emit a {RoleRevoked} event."
      },
      "revokeRole(bytes32,address)": {
        "details": "Revokes `role` from `account`. If `account` had been granted `role`, emits a {RoleRevoked} event. Requirements: - the caller must have ``role``'s admin role. May emit a {RoleRevoked} event."
      },
      "safeTransferFrom(address,address,uint256)": {
        "details": "Equivalent to `safeTransferFrom(from, to, tokenId, '')`."
      },
      "safeTransferFrom(address,address,uint256,bytes)": {
        "details": "Safely transfers `tokenId` token from `from` to `to`. Requirements: - `from` cannot be the zero address. - `to` cannot be the zero address. - `tokenId` token must exist and be owned by `from`. - If the caller is not `from`, it must be approved to move this token by either {approve} or {setApprovalForAll}. - If `to` refers to a smart contract, it must implement {IERC721Receiver-onERC721Received}, which is called upon a safe transfer. Emits a {Transfer} event."
      },
      "setApprovalForAll(address,bool)": {
        "details": "Approve or remove `operator` as an operator for the caller. Operators can call {transferFrom} or {safeTransferFrom} for any token owned by the caller. Requirements: - The `operator` cannot be the caller. Emits an {ApprovalForAll} event."
      },
      "symbol()": {
        "details": "Returns the token collection symbol."
      },
      "tokenURI(uint256)": {
        "details": "Returns the Uniform Resource Identifier (URI) for `tokenId` token."
      },
      "totalSupply()": {
        "details": "Returns the total number of tokens in existence. Burned tokens will reduce the count. To get the total number of tokens minted, please see {_totalMinted}."
      },
      "transferFrom(address,address,uint256)": {
        "details": "Transfers `tokenId` from `from` to `to`. Requirements: - `from` cannot be the zero address. - `to` cannot be the zero address. - `tokenId` token must be owned by `from`. - If the caller is not `from`, it must be approved to move this token by either {approve} or {setApprovalForAll}. Emits a {Transfer} event."
      },
      "transferOwnership(address)": {
        "details": "Transfers ownership of the contract to a new account (`newOwner`). Can only be called by the current owner."
      }
    },
    "version": 1
  },
  "userdoc": {
    "errors": {
      "ApprovalCallerNotOwnerNorApproved()": [
        {
          "notice": "The caller must own the token or be an approved operator."
        }
      ],
      "ApprovalQueryForNonexistentToken()": [
        {
          "notice": "The token does not exist."
        }
      ],
      "BalanceQueryForZeroAddress()": [
        {
          "notice": "Cannot query the balance for the zero address."
        }
      ],
      "MintERC2309QuantityExceedsLimit()": [
        {
          "notice": "The `quantity` minted with ERC2309 exceeds the safety limit."
        }
      ],
      "MintToZeroAddress()": [
        {
          "notice": "Cannot mint to the zero address."
        }
      ],
      "MintZeroQuantity()": [
        {
          "notice": "The quantity of tokens minted must be more than zero."
        }
      ],
      "OwnerQueryForNonexistentToken()": [
        {
          "notice": "The token does not exist."
        }
      ],
      "OwnershipNotInitializedForExtraData()": [
        {
          "notice": "The `extraData` cannot be set on an unintialized ownership slot."
        }
      ],
      "TransferCallerNotOwnerNorApproved()": [
        {
          "notice": "The caller must own the token or be an approved operator."
        }
      ],
      "TransferFromIncorrectOwner()": [
        {
          "notice": "The token must be owned by `from`."
        }
      ],
      "TransferToNonERC721ReceiverImplementer()": [
        {
          "notice": "Cannot safely transfer to a contract that does not implement the ERC721Receiver interface."
        }
      ],
      "TransferToZeroAddress()": [
        {
          "notice": "Cannot transfer to the zero address."
        }
      ],
      "URIQueryForNonexistentToken()": [
        {
          "notice": "The token does not exist."
        }
      ]
    },
    "kind": "user",
    "methods": {},
    "version": 1
  },
  "storageLayout": {
    "storage": [
      {
        "astId": 1153,
        "contract": "contracts/KeyCard/KeyCard.sol:KeyCard",
        "label": "_initialized",
        "offset": 0,
        "slot": "0",
        "type": "t_uint8"
      },
      {
        "astId": 1156,
        "contract": "contracts/KeyCard/KeyCard.sol:KeyCard",
        "label": "_initializing",
        "offset": 1,
        "slot": "0",
        "type": "t_bool"
      },
      {
        "astId": 2235,
        "contract": "contracts/KeyCard/KeyCard.sol:KeyCard",
        "label": "__gap",
        "offset": 0,
        "slot": "1",
        "type": "t_array(t_uint256)50_storage"
      },
      {
        "astId": 525,
        "contract": "contracts/KeyCard/KeyCard.sol:KeyCard",
        "label": "_owner",
        "offset": 0,
        "slot": "51",
        "type": "t_address"
      },
      {
        "astId": 645,
        "contract": "contracts/KeyCard/KeyCard.sol:KeyCard",
        "label": "__gap",
        "offset": 0,
        "slot": "52",
        "type": "t_array(t_uint256)49_storage"
      },
      {
        "astId": 2454,
        "contract": "contracts/KeyCard/KeyCard.sol:KeyCard",
        "label": "__gap",
        "offset": 0,
        "slot": "101",
        "type": "t_array(t_uint256)50_storage"
      },
      {
        "astId": 39,
        "contract": "contracts/KeyCard/KeyCard.sol:KeyCard",
        "label": "_roles",
        "offset": 0,
        "slot": "151",
        "type": "t_mapping(t_bytes32,t_struct(RoleData)34_storage)"
      },
      {
        "astId": 334,
        "contract": "contracts/KeyCard/KeyCard.sol:KeyCard",
        "label": "__gap",
        "offset": 0,
        "slot": "152",
        "type": "t_array(t_uint256)49_storage"
      }
    ],
    "types": {
      "t_address": {
        "encoding": "inplace",
        "label": "address",
        "numberOfBytes": "20"
      },
      "t_array(t_uint256)49_storage": {
        "base": "t_uint256",
        "encoding": "inplace",
        "label": "uint256[49]",
        "numberOfBytes": "1568"
      },
      "t_array(t_uint256)50_storage": {
        "base": "t_uint256",
        "encoding": "inplace",
        "label": "uint256[50]",
        "numberOfBytes": "1600"
      },
      "t_bool": {
        "encoding": "inplace",
        "label": "bool",
        "numberOfBytes": "1"
      },
      "t_bytes32": {
        "encoding": "inplace",
        "label": "bytes32",
        "numberOfBytes": "32"
      },
      "t_mapping(t_address,t_bool)": {
        "encoding": "mapping",
        "key": "t_address",
        "label": "mapping(address => bool)",
        "numberOfBytes": "32",
        "value": "t_bool"
      },
      "t_mapping(t_bytes32,t_struct(RoleData)34_storage)": {
        "encoding": "mapping",
        "key": "t_bytes32",
        "label": "mapping(bytes32 => struct AccessControlUpgradeable.RoleData)",
        "numberOfBytes": "32",
        "value": "t_struct(RoleData)34_storage"
      },
      "t_struct(RoleData)34_storage": {
        "encoding": "inplace",
        "label": "struct AccessControlUpgradeable.RoleData",
        "members": [
          {
            "astId": 31,
            "contract": "contracts/KeyCard/KeyCard.sol:KeyCard",
            "label": "members",
            "offset": 0,
            "slot": "0",
            "type": "t_mapping(t_address,t_bool)"
          },
          {
            "astId": 33,
            "contract": "contracts/KeyCard/KeyCard.sol:KeyCard",
            "label": "adminRole",
            "offset": 0,
            "slot": "1",
            "type": "t_bytes32"
          }
        ],
        "numberOfBytes": "64"
      },
      "t_uint256": {
        "encoding": "inplace",
        "label": "uint256",
        "numberOfBytes": "32"
      },
      "t_uint8": {
        "encoding": "inplace",
        "label": "uint8",
        "numberOfBytes": "1"
      }
    }
  }
}